:10000000803119280000203085000230840000086B
:10001000031918280130F800F701F70B0D28F80B29
:100020000C284A30F700F70B13281628800B0A28F3
:1000300008006A302100990023008C018D01220004
:100040009201910194019301FE3021008C000C106B
:1000500022000C1021000C1022000C14C8302000CB
:10006000A200032021000C1022000C1004302000FC
:10007000A100FA30A2000320A10B392822002A286F
:0200800063001B
:020000040001F9
:04000E00C43FFF1ECE
:00000001FF
;PIC16F1827
;CRC=B755  CREATED="09-ago-25 19:00"
