:100000008031632E00000B0028340C340134063498
:10001000CD32EE3A3A00BE18202B6139E930720039
:100020003E19A023F530723261390001BE19A022B9
:100030004528D2274D003E1A20286539F3180001C3
:100040003E19A023F530723261390000D630F23407
:100050006139A0216F366F392014422A4E10F332D5
:10006000EC140001C73A6139E430F217D232E33AB6
:10007000F032F2307200BE23F53072326139A031B5
:100080006F366F3900013E26E939F4307210E73AD5
:100090006139E430E43773003E29E531753865395C
:1000A0006139A034643CBA127500D332EC1ECF25FE
:1000B0002021E131EB1ED6376C3B65390001C33797
:1000C000EC377210E73A6139E430E4370001CC34A0
:1000D000733A6137E4372E172E00C337EC377210AE
:1000E000A53A3A00D232E33A7010A3127500C52245
:1000F0005029CF262021E139E9316F00C73A613913
:10010000E430E437731DA53A0001CC346239E53997
:10011000BA127500D032F2396F376136693D6132FB
:100120006F103100D03AEC396110F3326C10F030BE
:10013000F230A0274B005039E539653AA01275001E
:10014000D334733AE5366110D2234210EC34733A5B
:100150006F00203085003930840000080319BE2864
:100160000130F800F701F70BB328F80BB2284A303A
:10017000F700F70BB928BC28800BB0280800240032
:100180009513200091116608240091000230951B00
:10019000D0282000911DCA2800302400161B0130F1
:1001A000F800200008006408003A0319DB28013A2F
:1001B0000319FB281C29630EF700F030F7057708B8
:1001C0002404E500E600BF200000630EF700F030D5
:1001D000F705770804382404E500E600BF20F0287E
:1001E000630EF700F030F7057708FB392404E500CB
:1001F000E600BF201C29630EF700F030F7057708F2
:1002000001382404E500E600BF200000630EF7007B
:10021000F030F7057708013804382404E500E600DB
:10022000BF201229630EF700F030F7057708013878
:100230002404E500E600BF20080024001614161868
:100240001F2920002008E600BF20600EE2000F30CA
:10025000E2056208E3006108E400D32060080F397A
:10026000E200E3006108E400D3202400161516190B
:100270003729200008000130E000E1011D21023093
:10028000D900A9200130A30008003308A0003508D8
:10029000A1003408A2000B138B138B1B4C293230A6
:1002A000D900A9202400161416185429200020086B
:1002B000E600BF20E301E401D3200F30D900A920DC
:1002C0000130B6003608033C031C6F290330E300FD
:1002D000E401D3200530D900A920B60A62290230F2
:1002E000E300E401D3200530D900A920240016152D
:1002F000161978292000B6013608033C031C8B2907
:1003000036080320B700E000E1011D210530D900C7
:10031000A920B60A7C293B21C0308B048031D42E21
:100320005A082102031897292108DB0099295A0845
:10033000DB005B08013A0319A729033A0319A9292D
:10034000013A0319AC29073A0319AF29B229DD0193
:10035000B3294030DD00B3291430DD00B329543017
:10036000DD00B329DD01590822020318BA29220849
:10037000DC00BC295908DC0001305C025D07DE00AE
:100380005E088038DF00E000E1011D210800580808
:100390000C3A0319D229063A0319D429023A03194F
:1003A000E129E6293B21EB29A30A230821020318AE
:1003B000DB290130A3000130D9002308DA009021A5
:1003C000EB291030E000E1011D21EB295808E00085
:1003D0000130E1001D2108000B088B132300951745
:1003E000151400000000891B8B1713087F390319AF
:1003F000342A2000D500230011082000D600230055
:1004000012082000D7005508D800C721560823003D
:10041000910020005708230092000B088B139517BA
:10042000151400000000891B8B17130D140D7F3964
:100430000319342A2000D500230011082000D6001B
:10044000230012082000D7005508D800C7215608FD
:10045000230091002000570823009200910A0319FD
:10046000920A2000EC292300200008003B210130E3
:10047000D900DA009021083023009100003092006A
:100480002000EC210130D9000230DA00902126084A
:100490000319542A013A03195C2A033A0319642AFE
:1004A000013A03196C2A742A0B30230091000030A2
:1004B00092002000EC217D2A1030230091000030B2
:1004C00092002000EC217D2A16302300910000309C
:1004D00092002000EC217D2A1B3023009100003087
:1004E00092002000EC217D2A0230A600203023005B
:1004F0009100003092002000EC218031042F460D45
:10050000F700F70DFC30F70521001D08833977044B
:100510009D000630F700F70B8B2A00009D14113068
:10052000F7009D1C952AF70B912A1C08F9001B085F
:10053000F8001C08FA001C08F900200008005C08FC
:10054000F9005B08F800F90CF80CF90CF80CF90C40
:10055000780825009100F90C790C3039F700130860
:10056000CF397704930020005A08F9005908F800A1
:10057000F90CF80CF90CF80CF90C78082500980027
:10058000F90C790C3039F7001A08CF3977049A0042
:1005900020005E08F9005D08F800F90CF80CF90C71
:1005A000F80CF90C780826009100F90C790C303918
:1005B000F7001308CF397704930020005A08A800E9
:1005C0005908A7005C08AA005B08A9005E08AC00F7
:1005D0005D08AB0008001030DE00F701FA01DB0C0B
:1005E000DA0C031CF92A5C08F7070318FA0A5D08FD
:1005F000FA07FA0CF70CF90CF80CDE0BEF2A0800DE
:10060000F801F901F701FA015F08031D0A2B5E08E2
:100610000319242B1030E0000310DC0DDD0DF70D65
:10062000FA0D5F087A02031D172B5E087702031C80
:10063000202B5E08F702031CFA035F08FA0203147A
:10064000F80DF90DE00B0C2B08005808DB005708DB
:10065000DA00DD01FF30DC00EB227908DB007808EE
:10066000DA007908DD007808DC000330DF00FF30B5
:10067000DE000023780808005908F8015802031822
:10068000442B5808F700502BF7010830DA00D80D3A
:10069000F70D590877020318F700F80DDA0B472B0E
:1006A000080078085608D8006430D9003C23770841
:1006B000D60078083030031D642BD71C6B2BD7195C
:1006C0006B2B571A2030672BD71157125714F80786
:1006D0007808D800C7215608D8000A30D9003C2332
:1006E0007708D60078083030031D7C2BD719802B73
:1006F000571C802B571A2030F8077808D800C721DC
:100700003030D6075608D800C72108003B210130F9
:10071000D900DA00902126302300910000309200A9
:100720002000EC21C6017F227908B4007808B300CC
:100730000130C6007F227908B6007808B500023083
:10074000C6007F227908B8007808B7003408DA00BC
:100750003308D9003608DC003508DB003808DE0035
:100760003708DD009F223B210130D900DA009021BB
:100770003408D8003308D70025237808BA00360893
:10078000D8003508D70025237808BB005230D800A0
:10079000C7213A30D800C7213A08D6001B30D7000D
:1007A00051232030D800C7214730D800C7213A3024
:1007B000D800C7213B08D6001B30D7005123013099
:1007C000D9000230DA0090213808D8003708D70065
:1007D00025237808BA004230D800C7213A30D80023
:1007E000C7213A08D6001B30D700512321000D1431
:1007F000200039100D18391439180D2C2D1C0D2C12
:100800002830D900A92021000D1420000D180D2C2E
:100810002D10C830D900A9202B2C2D1039182D14DB
:1008200021000D152000B9100D19B914B918272C85
:10083000AD1C272C2830D900A92021000D1520003F
:100840000D19272CAD10C830D900A9202B2CAD10C4
:10085000B918AD14922B80314F2F0B088B13230046
:100860009517151400000000891B8B1703185E2CC8
:1008700013087F392000D500230011082000D6007E
:10088000230012082000D7005508D800C7215608B9
:100890002300910020005708230092000B088B13BF
:1008A0009517151400000000891B8B172000D40B2E
:1008B0005A2C5C2C23005E2C7C2C2300130D140D71
:1008C0007F392000D500230011082000D600230026
:1008D00012082000D7005508D800C7215608230069
:1008E00091002000570823009200910A0319920AF0
:1008F00003102000D40B2D2C0800F701F801570835
:1009000003105818F707F70CF80CD818F707F70C6E
:10091000F80C5819F707F70CF80CD819F707F70C6B
:10092000F80C581AF707F70CF80CD81AF707F70C59
:10093000F80C581BF707F70CF80CD81BF707F70C47
:10094000F80C0800C601C7014708543C031CE12C01
:100950004708D7000330D8007D247808CB004B0827
:10096000230091009513151413082000C8004708B0
:10097000D7000330D8007D2401307807CB004B0826
:10098000230091009513151413082000C90047088F
:10099000D7000330D8007D2402307807CB004B0805
:1009A000230091009513151413082000CA00480F66
:1009B000DE2C490FDE2C4A0FDE2CE12CC60AC70ABA
:1009C000A42C4608F80008003B210130D900DA00C9
:1009D0009021773023009100003092002000EC211C
:1009E0000430B500AF30D900A920B50BF22CA224F9
:1009F0007808B300553CB4003B210130D900DA003F
:100A000090217E30230091000030920003100A30C4
:100A10002000D4002D243308D6001B30D7005123EA
:100A20000130D9000230DA00902185302300910096
:100A300000309200031007302000D4002D24340829
:100A4000D6001B30D70051230830B500FA30D9004A
:100A5000A920B50B262D80314F2F3B210130D90025
:100A6000DA0090218A3023009100003092002000AB
:100A7000EC210130D9000230DA00902192302300BD
:100A80009100003092002000EC210430D200FA30B6
:100A9000D900A920D20B472DFF30B4000330B50098
:100AA000B601B701B801B901BA01BB01FF30BC0002
:100AB0000330BD00BE01BF01C001C101C201C301BD
:100AC000FF30C4000330C500FF30C6000330C7004C
:100AD000FF30C8000330C900CA01CB01B30133089D
:100AE000033C031C612E3308D7000630D8007D2458
:100AF000143078078400203085000318850A000828
:100B0000D20001310008D3003F313308D70006304E
:100B1000D8007D2402307807143E84002030850000
:100B20000318850A0008D40001310008D5003F31C0
:100B30003308D7000630D8007D2404307807143EEF
:100B40008400203085000318850A0008D600013192
:100B50000008D7003F315308DA005208D900550881
:100B6000DC005408DB005708DE005608DD009F2239
:100B70003B210130D900DA00902101303307D20047
:100B80009B302300910000309200031007302000BA
:100B9000D4002D245208D6001B30D7005123013039
:100BA000D9000230DA0090213308D7000630D8008F
:100BB0007D24143078078400203085000318850ACE
:100BC0000008D20001310008D3003F315308D8009B
:100BD0005208D70025237808D2003308D700063002
:100BE000D8007D2402307807143E84002030850030
:100BF0000318850A0008D30001310008D4003F31F2
:100C00005408D8005308D70025237808D3003308A8
:100C1000D7000630D8007D2404307807143E8400C5
:100C2000203085000318850A0008D400013100082F
:100C3000D5003F315508D8005408D700252378083F
:100C4000D4005230D800C7213A30D800C72152080A
:100C5000D6001B30D70051232030D800C7214730A1
:100C6000D800C7213A30D800C7215308D6001B301E
:100C7000D70051232030D800C7214230D800C721E7
:100C80003A30D800C7215408D6001B30D700512372
:100C90000430D200E130D900A920D20B4A2E210025
:100CA0000D1520004C100D194C144C185F2E3230CD
:100CB000D900A92021000D1520000D1D612EB30AB9
:100CC0006F2D80314F2F6A30210099000D168D1441
:100CD00024001710971097110930920028309500C2
:100CE0009417141301302000A3000830A400A601BB
:100CF0002D14AD14AF01AE0123008C018D01220033
:100D000092019101940193012000A501A701A8017E
:100D1000A901AA01AB01AC0121001E109E101E11F9
:100D2000073023008C0000308D0021001E169E1617
:100D30001E139E171D1422001D109D101D11210051
:100D40008D1122008D110C30250093009401950126
:100D50001E109E100130960022009D111D122100D0
:100D60000D1322000D130C3025009A009B019C01ED
:100D70001E119E1101309D0021008C1122008C114A
:100D80000C302600930025001E129E120030F80041
:100D9000043820009C00FF309B004E30B300103020
:100DA000B4000230B50045293230D900A920210015
:100DB0000D1420002D100D182D1421000D152000EC
:100DC000AD100D19AD142500910198012600910177
:100DD0002000A601A801A701AA01A901AC01AB014D
:100DE0003B210130D900DA009021A030230091008E
:100DF000003092002000EC210530B300F030D90023
:100E0000A920B30BFE2E362AC6017F227908B10035
:100E10007808B000B108031D1A2F3008C73C031C26
:100E20001A2FA6080319192FA6033B21C830D90091
:100E3000A9202E2F3108023C03182E2FFF3A031D44
:100E4000252F3008203C03182E2F2608023C031CB7
:100E50002E2FA60A3B21C830D900A92021000D144D
:100E6000200032100D18321432184F2F2D1C4F2F26
:100E70002830D900A92021000D1420000D184F2F73
:100E80002608FC3E03184F2F043E782F862B4F2F49
:100E90008831002880314F2FE42C4F2F2D2D2D101D
:100EA00032182D14C6017F227908A8007808A700FF
:100EB0000130C6007F227908AA007808A900023014
:100EC000C6007F227908AC007808AB002808DA0059
:100ED0002708D9002A08DC002908DB002C08DE00DE
:100EE0002B08DD009F22C830D900A920032F630002
:100EF0000A148A140A158207462F482F4C2F4E2FAA
:10100000B301B40180313B2188310130D900DA00CD
:1010100080319021883132302300910000309200DD
:1010200080312000EC2188310430C600AF30D90077
:101030008031A9208831C60B162880313B218831A8
:101040000130D900DA00803190218831B308031DC6
:1010500033283B3023009100003092008031200083
:10106000EC2188315628330B3F2843302300910070
:101070000030920080312000EC218831562833085E
:10108000023C031D56284C30230091000030920092
:1010900003100F302000D40080312D248831340813
:1010A000D6001B30D7008031512388310130D90060
:1010B0000230DA00803190218831553023009100D0
:1010C0000030920080312000EC218831C830D900F6
:1010D0008031A9208831C60180317F22883179088A
:1010E000B6007808B500B608031D84283508C73C4B
:1010F000031C8428B30803198328B303FA30D900EA
:101100008031A920883199283608023C0318992893
:10111000FF3A031D8F283508203C0318992833080F
:10112000013C031C9928B30AFA30D9008031A92068
:1011300088313308023C031DCE280130C6008031BF
:101140007F2288317908B8007808B7008031A2245E
:1011500088317808B900B908031DB0280130B900FA
:1011600001303902C6003808DB003708DA00DD013B
:101170004608DC008031EB2288317908C700780806
:10118000C6004708DD004608DC000330DF00FF3002
:10119000DE008031002388317808B40021000D146E
:1011A00020003A100D183A143A18542C2D1C542CC7
:1011B0002830D9008031A920883121000D14200069
:1011C0000D18542CB308031D2A2A2708C600280826
:1011D000C7002908C8002A08C9002B08CA002C0823
:1011E000CB00CC01CD014D08543C031CB2294D0865
:1011F000D7000330D80080317D2488317808D700AB
:101200005708230091009513151413082000CE00F1
:101210004D08D7000330D80080317D24883101305B
:101220007807D70057082300910095131514130869
:101230002000CF004D08D7000330D80080317D2436
:10124000883102307807D7005708230091009513A2
:10125000151413082000D0004E0FB0294F0FB029ED
:10126000500FB0294708D8004608D7008031252301
:1012700088317808D1004908D8004808D700803163
:10128000252388317808D2004B08D8004A08D700B7
:101290008031252388317808D3004D08D7000330EA
:1012A000D80080317D2488317808D7000B08F700FA
:1012B0008B1378082300910020005108230093002D
:1012C0009513151555309600AA309600951495186B
:1012D0006729151177088B0420004D08D7000330CB
:1012E000D80080317D24883101307807D7000B0881
:1012F000F7008B13570823009100200052082300A9
:1013000093009513151555309600AA309600951444
:1013100095188829151177088B0420004D08D700EF
:101320000330D80080317D24883102307807D7001F
:101330000B08F7008B135708230091002000530877
:10134000230093009513151555309600AA3096008A
:1013500095149518A929151177088B040D2A2000DA
:10136000CD0AF3284708D8004608D7008031252346
:1013700088317808D4004908D8004808D70080315F
:10138000252388317808D5004B08D8004A08D700B3
:101390008031252388317808D6000B08F7008B139D
:1013A000FC30230091002000540823009300951383
:1013B000151555309600AA30960095149518DE291B
:1013C000151177088B040B08F7008B13FD30910083
:1013D00020005508230093009513151555309600ED
:1013E000AA30960095149518F329151177088B04E7
:1013F0000B08F7008B13FE309100200056082300E5
:1014000093009513151555309600AA309600951443
:101410009518082A151177088B04803120003B218C
:1014200088310130D900DA008031902188315F3075
:10143000230091000030920080312000EC2188319F
:101440000430C600FA30D9008031A9208831C60B9B
:10145000222A542C330BFC2A80313B218831013065
:10146000D900DA0080319021883167302300910063
:101470000030920080312000EC2188310230C6001B
:10148000FA30D9008031A9208831C60B402ABB012F
:101490003B08543C031CFB2A3B08D7000330D80010
:1014A00080317D2488317808C600460823009100E9
:1014B0009513151413082000BC003B08D700033017
:1014C000D80080317D24883101307807C600460875
:1014D000230091009513151413082000BD003B084C
:1014E000D7000330D80080317D248831023078075E
:1014F000C600460823009100951315141308200018
:10150000BE003C0F882A3D0F882A3E0F882AFB2AFE
:1015100080313B2188310130D900DA0080319021BF
:10152000883101303B07C6006D3023009100003048
:101530009200031006302000D40080312D24883121
:101540004608D6001B30D7008031512388313A300D
:10155000D8008031C72188310130D9000230DA004B
:101560008031902188315230D8008031C7218831B4
:101570003A30D8008031C72188313C08D6001B3072
:10158000D7008031512388312030D8008031C721E5
:1015900088314730D8008031C72188313A30D800AF
:1015A0008031C72188313D08D6001B30D7008031FB
:1015B000512388312030D8008031C7218831423012
:1015C000D8008031C72188313A30D8008031C72116
:1015D00088313E08D6001B30D70080315123883136
:1015E0000430C600E130D9008031A9208831C60B13
:1015F000F22ABB0A482A542C3308023C031D542CFF
:101600003408CB00CC01CD01CE01CF01D001D101F6
:101610004B08543C03180E2B5430CB004B08D7001A
:101620000330D80080317D2488317808D6005608F0
:10163000230091009513151413082000D2004B08C5
:10164000D7000330D80080317D24883101307807FD
:10165000D600560823009100951315141308200096
:10166000D3004B08D7000330D80080317D24883167
:1016700002307807D6005608230091009513151400
:1016800013082000D400520F572B530F572B540F21
:10169000572BD101D0015108CF005008CE004F0880
:1016A000CD004E08CC004C30F800F901AE2BDB0128
:1016B0005208DA000330DD00FF30DC008031EB221D
:1016C00088317908D7007808D6007908DD007808D5
:1016D000DC00DF01FF30DE00803100238831790833
:1016E000CD007808CC00DB015308DA000330DD00C0
:1016F000FF30DC008031EB2288317908D700780890
:10170000D6007908DD007808DC00DF01FF30DE005C
:101710008031002388317908CF007808CE00DB01C2
:101720005408DA000330DD00FF30DC008031EB22AA
:1017300088317908D7007808D6007908DD00780864
:10174000DC00DF01FF30DE008031002388317908C2
:10175000D1007808D0004C30F800F9017908FA007F
:10176000780884007A0885000630F8002030870069
:101770001F30860012001E00F80BBA2B4008DA005A
:101780003F08D9004208DC004108DB004408DE00C5
:101790004308DD0080319F22883180313B21883130
:1017A0000130D900DA0080319021883101303407CE
:1017B000C600723023009100003092000310073001
:1017C0002000D40080312D2488314608D6001B30FB
:1017D000D7008031512388310130D9000230DA003E
:1017E0008031902188314008D8003F08D7008031EF
:1017F000252388317808C6004208D8004108D70060
:101800008031252388317808C7004408D800430870
:10181000D7008031252388317808C8005230D8009D
:101820008031C72188313A30D8008031C7218831D2
:101830004608D6001B30D700803151238831203034
:10184000D8008031C72188314730D8008031C72186
:1018500088313A30D8008031C72188314708D60016
:101860001B30D7008031512388312030D80080319F
:10187000C72188314230D8008031C72188313A30C1
:10188000D8008031C72188314808D6001B30D700E6
:101890008031512388310530C600F030D9008031C5
:1018A000A9208831C60B4D2C2D103A182D1421007B
:1018B0000D152000BA100D19BA14BA18722CAD1CEF
:1018C000722C2830D9008031A920883121000D15D3
:1018D00020000D19722CAD10C830D9008031A9201C
:1018E00088317B2CAD10BA18AD147830D900803116
:0A18F000A92088311D2880314F2FF8
:020000040001F9
:04000E00843FFF1E0E
:00000001FF
;PIC16F1827
;CRC=4169  CREATED="05-Nov-25 21:10"
