:100000008831002800000B0028340C3401340634F9
:10001000311DD6327210321DD2326310331DD332ED
:100020007400D3326C1D4710521D2518B33A0000DE
:10003000C73A6139E430E437A011A53A0001C5227E
:100040005029CF262026EC32EE300000CE37203467
:10005000E13CA0316F366F39E5390001C337EC3729
:100060007210A53AAF12751D20102010201000014B
:10007000CE372034E13CA0316F366F39E5390001CD
:10008000D232E33A7010A53AAF127500C337EC379D
:1000900072106138EC34E330E4372100C3376C1D53
:1000A000A53A20266931F232731DA53A0001BE2916
:1000B000653AA0216F366F392010201020102000E3
:1000C000201FD6327210C73A6139E430E43773101A
:1000D000200020103E29E53175386539613920103E
:1000E00020102000203085002A30840000080319E9
:1000F00087280130F800F701F70B7C28F80B7B28E4
:100100004A30F700F70B82288528800B79280800F1
:10011000240095132000911157082400910002300B
:10012000951B99282000911D932800302400161B50
:100130000130F800200008005508003A0319A428EF
:10014000013A0319C428E528540EF700F030F705EA
:1001500077082404D600D70088200000540EF7004A
:10016000F030F705770804382404D600D70088203B
:10017000B928540EF700F030F7057708FB3924044E
:10018000D600D7008820E528540EF700F030F70598
:10019000770801382404D600D70088200000540EC8
:1001A000F700F030F7057708013804382404D6004A
:1001B000D7008820DB28540EF700F030F7057708C9
:1001C00001382404D600D700882008002400161423
:1001D0001618E82820002008D7008820510ED300E8
:1001E0000F30D3055308D4005208D5009C20510885
:1001F0000F39D300D4005208D5009C2024001615D6
:1002000016190029200008000130D100D201E62093
:100210000230CA0072200130A300080068302100BB
:1002200099001E109E101E11033023008C00003018
:100230008D0021001E169E161E139E171D144E3093
:100240002000B3001030B4000230B5003308A00025
:100250003508A1003408A2000B138B138B1B2D292A
:100260003230CA00722024001614161835292000D6
:100270002008D7008820D401D5019C200F30CA0067
:1002800072200130B6003608033C031C50290330AD
:10029000D400D5019C200530CA007220B60A43293B
:1002A0000230D400D5019C200530CA007220240001
:1002B0001615161959292000B6013608033C031CEF
:1002C0006C2936080320B700D100D201E6200530A2
:1002D000CA007220B60A5D290421C0308B040421B3
:1002E00022001D109D101D1121008D1122008D1165
:1002F0000C3025009300940195011E109E100130D2
:10030000960022009D111D1221000D1322000D13D5
:100310000C3025009A009B019C011E119E1101309A
:100320009D0021008C1122008C110C3026009300BE
:1003300025001E129E120030F800063820009C0096
:10034000FF309B0021000D08F7392000B300210089
:100350008D0025009101980126009101883120002F
:100360002A28F701F801470803104818F707F70C87
:10037000F80CC818F707F70CF80C4819F707F70C32
:10038000F80CC819F707F70CF80C481AF707F70C20
:10039000F80CC81AF707F70CF80C481BF707F70C0E
:1003A000F80CC81BF707F70CF80C0800C201C601CF
:1003B0004608543C031C152A4608C7000330C800F1
:1003C000B1217808C7004708230091009513151440
:1003D00013082000C3004608C7000330C800B1213D
:1003E00001307807C70047082300910095131514C2
:1003F00013082000C4004608C7000330C800B1211C
:1004000002307807C70047082300910095131514A0
:1004100013082000C500430F122A440F122A450F6B
:10042000122A152AC20AC60AD8294208F80008006A
:100430004B08210203181F2A2108CC00212A4B084F
:10044000CC004C08013A03192F2A033A0319312A28
:10045000013A0319342A073A0319372A3A2ACE01F6
:100460003B2A4030CE003B2A1430CE003B2A543089
:10047000CE003B2ACE014A0822020318422A220853
:10048000CD00442A4A08CD0001304D024E07CF006E
:100490004F088038D000D100D201E620080049087A
:1004A0000C3A03195A2A063A03195C2A023A03192C
:1004B000692A6E2A0421732AA30A23082102031839
:1004C000632A0130A3000130CA002308CB001822A0
:1004D000732A1030D100D201E620732A4908D100D6
:1004E0000130D200E62008000B088B13230095177B
:1004F000151400000000891B8B170318A52A130888
:100500007F392000C600230011082000C700230007
:1005100012082000C8004608C9004F2247082300DF
:10052000910020004808230092000B088B139517B8
:10053000151400000000891B8B172000C30BA12A93
:10054000A32A2300A52AC32A2300130D140D7F39E3
:100550002000C600230011082000C7002300120855
:100560002000C8004608C9004F2247082300910018
:100570002000480823009200910A0319920A0310F0
:100580002000C30B742A08004608F801450203182E
:10059000CC2A4508F700D82AF7010830C700C50D56
:1005A000F70D460877020318F700F80DC70BCF2A9E
:1005B000080078084308C5006430C600C4227708E4
:1005C000C30078083030031DEC2AC41CF32AC41978
:1005D000F32A441A2030EF2AC41144124414F807B5
:1005E0007808C9004F224308C5000A30C600C4225B
:1005F0007708C30078083030031D042BC419082B7A
:10060000441C082B441A2030F8077808C9004F22F0
:100610003030C3074308C9004F22080042082500B4
:10062000910020004308250098002000440826007F
:100630009100200008000B088B1323009517151458
:1006400000000000891B8B1713087F390319632BE7
:100650002000C300230011082000C400230012085A
:100660002000C5004308C9004F2244082300910020
:1006700020004508230092000B088B1395171514D2
:1006800000000000891B8B17130D140D7F3903190F
:10069000632B2000C300230011082000C4002300A6
:1006A00012082000C5004308C9004F224408230057
:1006B00091002000450823009200910A0319920A34
:1006C00020001B2B23002000080004210130CA0059
:1006D000CB00182208302300910000309200200047
:1006E0001B2388317528420DF700F70DFC30F70504
:1006F00021001D08833977049D000630F700F70BB1
:100700007F2B00009D141130F7009D1C892BF70BE7
:10071000852B1B08F8001C082000C4007808C300C3
:10072000440CFA00430CF900FA0CF90C3F30FA05BE
:100730007908F80008000130B500FF30B60001303C
:10074000B700B800B900BA140530BB00BC010421E1
:100750001130230091000030920003100830200077
:10076000C30074222608C3000330C400D92201301C
:10077000CA000230CB0018224730C9004F223A305D
:10078000C9004F222708C3000330C400D9222030FB
:10079000C9004F224230C9004F223A30C9004F22CF
:1007A0002808C3000330C400D922C201732378088B
:1007B000B3000130C20073237808B40021000D1487
:1007C00020003A100D183A14B308031DEA2B01302B
:1007D000B502EE2B330FEE2B0130B507FA30CA000D
:1007E00072203508FF3C031DF72BB501FD2B3508A2
:1007F000033C031DFD2B0230B5003408323C031CC2
:10080000042CFF30BC000C2C3408CC3C03180B2CFF
:100810000130BC000C2CBC0135080319162C013A20
:100820000319332C033A0319502C6C2C3B08260275
:100830000318202C3C08FF3C031D202C6C2C2A2C78
:100840003B08FF3C260203192A2C031C2A2C3C0BD4
:100850002A2C6C2C3C08C7003B08C800B121780842
:100860002607A6006C2C3B08270203183D2C3C08E9
:10087000FF3C031D3D2C6C2C472C3B08FF3C270202
:100880000319472C031C472C3C0B472C6C2C3C08B1
:10089000C7003B08C800B12178082707A7006C2CC7
:1008A0003B08280203185A2C3C08FF3C031D5A2C15
:1008B0006C2C642C3B08FF3C28020319642C031C9D
:1008C000642C3C0B642C6C2C3C08C7003B08C80013
:1008D000B12178082807A800360835020319852CAD
:1008E0000530CA000130CB001822B508031D7C2C4E
:1008F0005230C9004F22852C350B822C4730C9005D
:100900004F22852C4230C9004F2237082602031996
:10091000932C0930CA000130CB0018222608C300EE
:100920000330C400D922380827020319A12C033050
:10093000CA000230CB0018222708C3000330C400CD
:10094000D922390828020319AF2C0930CA00023015
:10095000CB0018222808C3000330C400D92226087F
:10096000C2002708C3002808C4000E233508B600BB
:100970002808B9002708B8002608B7003A18742DCF
:10098000BA1C742DD6217808BD003D08543C031CC8
:10099000542D2808C0002708BF002608BE003D08C7
:1009A000C1004108C7000330C800B121C301780865
:1009B000C2004108543C031C2E2D0B08F7008B137A
:1009C00042082300910020003E0823009300951365
:1009D000151555309600AA30960095149518EE2CF2
:1009E000151177088B04013020004207C400003045
:1009F000433DC5000B08F7008B134408230091000A
:100A000020003F08230093009513151555309600DC
:100A1000AA309600951495180B2D151177088B04A4
:100A2000023020004207C4000030433DC5000B08DF
:100A3000F7008B1344082300910020004008230096
:100A400093009513151555309600AA30960095140D
:100A50009518282D151177088B04200004210130EA
:100A6000CA00CB00182201303D07BE001830230019
:100A700091000030920003100A302000C30074225D
:100A80003E08C3001B30C400D9220430BE00FA3037
:100A9000CA007220BE0B472D0430BE00FA30CA00D7
:100AA0007220BE0B4E2D6E2D04210130CA00CB00EA
:100AB00018221F30230091000030920020001B23D9
:100AC0000430BE00FA30CA007220BE0B622D043022
:100AD000BE00FA30CA007220BE0B692D21000D1431
:100AE00020000D1C6E2D7B2DBA103A18BA146430FC
:100AF000CA007220D52B0800D6217808B300B401B3
:100B0000FF30B5003614B801B901B308031DA12D9B
:100B100004210130CA00CB001822263023009100A6
:100B20000030920020001B230430C000FA30CA00BD
:100B30007220C00B962D21000D1420000D1C9B2D42
:100B4000872E0330C000FA30CA007220C00BA32DDC
:100B500021000D1420000D1CA82D3230CA00722077
:100B600004210130C20073237808B70021000D145E
:100B70002000B6100D18B614B8013708323C031C1B
:100B8000C42DFF30B800CA2D3708CC3C0318CA2D3D
:100B90000130B800B8080319E12D390838020319EB
:100BA000E12D380BDA2D0130330234020318DA2D2F
:100BB000B40AE12D3808FF3C031DE12DB408031DE4
:100BC000B4033508340203196E2E3408C70003300D
:100BD000C800B121BE017808BD003D082300910086
:100BE0009513151413082000BA0001303D07C0000A
:100BF00000303E3DC10040082300910095131514BC
:100C000013082000BB0002303D07C00000303E3D0D
:100C1000C10040082300910095131514130820000B
:100C2000BC003A08C2003B08C3003C08C4000E23C5
:100C30000130CA00CB00182201303407C0002E302A
:100C40002300910000309200031006302000C30002
:100C500074224008C3001B30C400D9222F30C900C1
:100C60004F223308C3001B30C400D9223330230085
:100C7000910000309200031407302000C30074225A
:100C80000C30CA000130CB0018225230C9004F226C
:100C90003A30C9004F223A08C3000330C400D922B9
:100CA0000130CA000230CB0018224730C9004F2261
:100CB0003A30C9004F223B08C3000330C400D92298
:100CC0002030C9004F224230C9004F223A30C900BB
:100CD0004F223C08C3000330C400D922B6187C2E32
:100CE000361C7C2E21000D1420000D1C722EC2011A
:100CF000C301C4010E23872E3408B5003808B9009B
:100D00003610B61836143230CA007220B12D883130
:100D1000E628D6217808B300B401FF30B5003614B8
:100D2000B801B901B308031DAE2E04210130CA0079
:100D3000CB001822383023009100003092002000B0
:100D40001B230430C200FA30CA007220C20BA32E4B
:100D500021000D1420000D1CA82EC62F0330C20048
:100D6000FA30CA007220C20BB02E21000D142000F0
:100D70000D1CB52E3230CA00722004210130C20091
:100D800073237808B70021000D142000B6100D1849
:100D9000B614B8013708323C031CD12EFF30B8001E
:100DA000D72E3708CC3C0318D72E0130B800B8082E
:100DB0000319EE2E390838020319EE2E380BE72EF0
:100DC0000130330234020318E72EB40AEE2E38083D
:100DD000FF3C031DEE2EB408031DB4033508340296
:100DE00003196B2F3408C7000330C800B121BE01BE
:100DF0007808BD003D0823009100951315141308D1
:100E00002000BA0001303D07C20000303E3DC30063
:100E10004208230091009513151413082000BB000D
:100E200002303D07C20000303E3DC30042082300AF
:100E300091009513151413082000BC000421013003
:100E4000CA00CB00182201303407C2004030230012
:100E5000910000309200031006302000C30074227D
:100E60004208C3001B30C400D9222F30C9004F22D2
:100E70003308C3001B30C400D9220C30CA00013033
:100E8000CB0018225230C9004F223A30C9004F22FD
:100E90003A08C3000330C400D9220130CA0002302E
:100EA000CB0018224730C9004F223A30C9004F22E8
:100EB0003B08C3000330C400D9222030C9004F22B0
:100EC0004230C9004F223A30C9004F223C08C300CB
:100ED0000330C400D922B618BB2F361CBB2F3408F0
:100EE000C7000330C800B121C0017808BF003F0827
:100EF000230091009513151413082000A60001305B
:100F00003F07C2000030403DC3004208230091006B
:100F10009513151413082000A70002303F07C200E4
:100F20000030403DC3004208230091009513151482
:100F300013082000A8002608C2002708C3002808BC
:100F4000C4000E2304210130CA00CB001822463011
:100F5000230091000030920020001B230430C200C7
:100F6000FA30CA007220C20BB02F21000D142000ED
:100F70000D1CB52FC62F3408B5003808B90036103F
:100F8000B61836143230CA007220BE2E8831E528D9
:101000006A30210099000D168D14240017109710D6
:10101000971109309200283095009417141301306D
:101020002000A3000830A4000130A9002A14AB015D
:10103000AC01AE01AD0123008C018D0122009201B3
:101040009101940193012000A501A601A701A80127
:1010500080310E2988318031D62188317808AF005F
:10106000553CB0008031042188310130CA00CB00EA
:101070008031182288314E302300910000309200D8
:10108000031004302000C3008031742288312F08FF
:10109000C3001B30C4008031D92288315130230075
:1010A000910000309200031008302000C30080310E
:1010B000742288313008C3001B30C4008031D9222B
:1010C00088310530B300F030CA0080317220883199
:1010D000B30B6328A601A701A801C201C301C40183
:1010E00080310E2388318031652B8831C2018031F7
:1010F000732388317808B1003108323C031C8328FF
:101100000130A90094283108CC3C03188A28023009
:10111000A90094283108783C031894283108863CAB
:10112000031C94280330A9000130CA000230CB0010
:10113000803118228831290BA728573023009100CD
:1011400000309200803120001B238831C2282908FA
:10115000023C031DB528603023009100003092004E
:10116000803120001B238831C2282908033C031D3D
:10117000C2286930230091000030920080312000A5
:101180001B23883121000D14200032100D18321459
:101190003218EF282A1CEF2821000D1420000D1C06
:1011A000CC28290BD72880319B238831E6282908B1
:1011B000023C031DDF2880317C2D8831E628290878
:1011C000033C031DE6288031892E88310230B300AC
:1011D0009630CA00803172208831B30BE8282A107B
:1011E00032182A146430CA00803172208831732882
:1011F00080319B2388316430CA008031722088316D
:02120000630089
:020000040001F9
:04000E00843FFF1E0E
:00000001FF
;PIC16F1827
;CRC=59C0  CREATED="11-nov.-25 14:43"
