:060000008031912E00008A
:0800080083018031200077081C
:10001000A0007808A1007908A2007A08A3002300B4
:1000200011082000A400230012082000A5002300CE
:1000300013082000A600230014082000A7008B1D31
:1000400023280B1840288B1E27280B19422820082C
:10005000F7002108F8002208F9002308FA00240814
:10006000230091002000250823009200200026088C
:10007000230093002000270823009400090020009B
:1000800080314928803151280B0028340C34013448
:100090000634FF302700160696050B10803120002D
:1000A0002728B40A3308340203185C2821000D13F2
:1000B00022000D176028200021000D1322000D13CF
:1000C0000B11803120002728311DD3327410E33703
:1000D000EC377210321DD6327200D3326C1D4710CD
:1000E000521D2518B33A0000C73A6139E430E437AD
:1000F000A011A53A0001C5225029CF262026EC32B6
:10010000EE300000CE372034E13CA0316F366F393D
:10011000E5390001C337EC377210A53AAF12751DEF
:100120002010201020100001C3376C1DA53A202696
:100130006931F232731DA53A0001BE29653AA0214A
:100140006F366F392010201020100001201FD6328A
:100150007210C73A6139E430E4377300203085000B
:100160003030840000080319C3280130F800F7017B
:10017000F70BB828F80BB7284A30F700F70BBE2862
:10018000C128800BB5280800240095132000911188
:100190005D08240091000230951BD5282000911D98
:1001A000CF2800302400161B0130F8002000080082
:1001B0005B08003A0319E028013A031900292129B4
:1001C0005A0EF700F030F70577082C04DC00DD004C
:1001D000C42000005A0EF700F030F7057708043805
:1001E0002C04DC00DD00C420F5285A0EF700F030A6
:1001F000F7057708FB392C04DC00DD00C420212939
:100200005A0EF700F030F705770801382C04DC00AF
:10021000DD00C42000005A0EF700F030F705770823
:10022000013804382C04DC00DD00C42017295A0EE4
:10023000F700F030F705770801382C04DC00DD000A
:10024000C4200800240016141618242920002808A9
:10025000DD00C420570ED9000F30D9055908DA0047
:100260005808DB00D82057080F39D900DA005808A1
:10027000DB00D8202400161516193C2920000800A0
:100280000130D700D80122210230D000AE20013049
:10029000AB0008006830210099001E109E101E114E
:1002A000033023008C0000308D0021001E169E16A6
:1002B0001E139E171D144E302000BB001030BC00D2
:1002C0000230BD003B08A8003D08A9003C08AA0078
:1002D0000B138B138B1B69293230D000AE20240006
:1002E00016141618712920002808DD00C420DA0130
:1002F000DB01D8200F30D000AE200130BE003E0818
:10030000033C031C8C290330DA00DB01D8200530C4
:10031000D000AE20BE0A7F290230DA00DB01D820EF
:100320000530D000AE20240016151619952920009E
:10033000BE013E08033C031CA8293E084420BF0020
:10034000D700D80122210530D000AE20BE0A99295D
:100350004021C0308B04402122001D109D101D1132
:1003600021008D1122008D110C3025009300940185
:1003700095011E109E100130960022009D111D1245
:1003800021000D1322000D130C3025009A009B0153
:100390009C011E119E1101309D000030F8000438B0
:1003A00020009C00FF309B00250091019801210056
:1003B0001508C03907389500200095018B16C0300C
:1003C0008B048031BA2EF701F80150080310511840
:1003D000F707F70CF80CD118F707F70CF80C5119C0
:1003E000F707F70CF80CD119F707F70CF80C511AAE
:1003F000F707F70CF80CD11AF707F70CF80C511B9C
:10040000F707F70CF80CD11BF707F70CF80C0800EE
:10041000CA01CE014E08543C031C472A4E08D000A6
:100420000330D100E3217808CF004F08230091006A
:100430009513151413082000CB004E08D00003308C
:10044000D100E32101307807CF004F08230091004D
:100450009513151413082000CC004E08D00003306B
:10046000D100E32102307807CF004F08230091002C
:100470009513151413082000CD004B0F442A4C0F80
:10048000442A4D0F442A472ACA0ACE0A0A2A4A0891
:10049000F8000800510829020318512A2908D2003F
:1004A000532A5108D2005208013A0319612A033A2B
:1004B0000319632A013A0319662A073A0319692ABC
:1004C0006C2AD4016D2A4030D4006D2A1430D40037
:1004D0006D2A5430D4006D2AD40150082A02031822
:1004E000742A2A08D300762A5008D3000130530218
:1004F0005407D50055088038D600D700D8012221EE
:1005000008004F080C3A03198C2A063A03198E2A60
:10051000023A03199B2AA02A4021A52AAB0A2B08DC
:1005200029020318952A0130AB000130D0002B08B6
:10053000D1004A22A52A1030D700D8012221A52AAD
:100540004F08D7000130D800222108000B088B1378
:1005500023009517151400000000891B8B17031842
:10056000D72A13087F392000CC002300110820006F
:10057000CD00230012082000CE004C08CF008122BD
:100580004D082300910020004E08230092000B0824
:100590008B139517151400000000891B8B17200082
:1005A000CB0BD32AD52A2300D72AF52A2300130DF3
:1005B000140D7F392000CC00230011082000CD004D
:1005C000230012082000CE004C08CF0081224D08E5
:1005D0002300910020004E0823009200910A031985
:1005E000920A03102000CB0BA62A08004E08F8013F
:1005F0004D020318FE2A4D08F7000A2BF7010830B8
:10060000CF00CD0DF70D4E0877020318F700F80D57
:10061000CF0B012B080078084B08CD006430CE00CA
:10062000F6227708CB0078083030031D1E2BCC1C37
:10063000252BCC19252B4C1A2030212BCC114C12F8
:100640004C14F8077808CF0081224B08CD000A30FF
:10065000CE00F6227708CB0078083030031D362B09
:10066000CC193A2B4C1C3A2B4C1A2030F80778083E
:10067000CF0081223030CB074B08CF008122080009
:100680004A082500910020004B0825009800200012
:100690004C08B30008000B088B13230095171514A2
:1006A00000000000891B8B1713087F390319932B57
:1006B0002000CC00230011082000CD0023001208E8
:1006C0002000CE004C08CF0081224D08230091006D
:1006D00020004E08230092000B088B139517151469
:1006E00000000000891B8B17130D140D7F390319AF
:1006F000932B2000CC00230011082000CD00230004
:1007000012082000CE004C08CF0081224D082300A3
:10071000910020004E0823009200910A0319920ACA
:1007200020004B2B23002000080040210130D00086
:10073000D1004A2264302300910000309200200052
:100740004B238031F12E4A0DF700F70DFC30F705F1
:1007500021001D08833977049D000630F700F70B50
:10076000AF2B00009D141130F7009D1CB92BF70B27
:10077000B52B1B08F8001C082000CC007808CB0023
:100780004C0CFA004B0CF900FA0CF90C3F30FA054E
:100790007908F80008000130BD00FF30BE000130CC
:1007A000BF00C000C100C214C301C4010A30C500AB
:1007B00040216D302300910000309200031008307A
:1007C0002000CB00A6222E08CB000330CC000B2348
:1007D0000130D0000230D1004A224730CF008122C0
:1007E0003A30CF0081222F08CB000330CC000B23FE
:1007F0002030CF0081224230CF0081223A30CF001A
:1008000081223008CB000330CC000B23CA01A32384
:100810007808BB000130CA00A3237808BC0021007F
:100820000D14200042100D1842143B086E3C031CAE
:100830001B2CBD01242C3B08A93C0318222C0230A0
:10084000BD00242C0130BD00C3013C086E3C031CDC
:100850002C2CFF30C300322C3C08A93C0318322C4E
:100860000130C300C308031D392CC4010A30C50080
:100870003A2CC40A4408450203187C2CC4010230F7
:10088000C500C701C6010530C8003D0803194F2C3B
:10089000013A0319532C033A0319572C5A2CC70158
:1008A0002E08C6005A2CC7012F08C6005A2CC701B3
:1008B0003008C6004308D0004808D100E32178087A
:1008C000C6070030C73D4708003C03186A2CC70123
:1008D000FF30C6003D080319742C013A0319772C28
:1008E000033A03197A2C7C2C4608AE007C2C46086F
:1008F000AF007C2C4608B0003E083D020319952C41
:100900000530D0000130D1004A22BD08031D8C2CD7
:100910005230CF008122952C3D0B922C4730CF00D6
:100920008122952C4230CF0081223F082E020319EC
:10093000A32C0930D0000130D1004A222E08CB0070
:100940000330CC000B2340082F020319B12C0330D5
:10095000D0000230D1004A222F08CB000330CC0057
:100960000B23410830020319BF2C0B30D00002309A
:10097000D1004A223008CB000330CC000B232E08D4
:10098000CA002F08CB003008CC0040233D08BE0031
:100990003008C1002F08C0002E08BF004218842D67
:1009A000C21C842D08227808C9004908543C031C45
:1009B000642D3008CC002F08CB002E08CA0049084F
:1009C000CD004D08D0000330D100E321CF017808DD
:1009D000CE004D08543C031C3E2D0B08F7008B1332
:1009E0004E082300910020004A082300930095132D
:1009F000151555309600AA30960095149518FE2CC2
:100A0000151177088B04013020004E07D00000300C
:100A10004F3DD1000B08F7008B13500823009100C5
:100A200020004B08230093009513151555309600B0
:100A3000AA309600951495181B2D151177088B0474
:100A4000023020004E07D00000304F3DD1000B088F
:100A5000F7008B1350082300910020004C0823005E
:100A600093009513151555309600AA3096009514ED
:100A70009518382D151177088B042000402101307E
:100A8000D000D1004A2201304907CA007430230047
:100A900091000030920003100A302000CB00A62203
:100AA0004A08CB001B30CC000B230430CA00FA30BC
:100AB000D000AE20CA0B572D0430CA00FA30D00047
:100AC000AE20CA0B5E2D7E2D40210130D000D1001A
:100AD0004A227B30230091000030920020004B23FB
:100AE0000430CA00FA30D000AE20CA0B722D043098
:100AF000CA00FA30D000AE20CA0B792D21000D14A7
:100B000020000D1C7E2D8B2DC2104218C2143230D5
:100B1000D000AE20062C8031292F08227808BB0097
:100B2000BC01FF30BD003E14C001C101BB08031D64
:100B3000B22D40210130D000D1004A228230230062
:100B400091000030920020004B230430C800FA309E
:100B5000D000AE20C80BA72D21000D1420000D1CC5
:100B6000AC2D8F2E21000D1420000D1CB22D323023
:100B7000D000AE2040210130CA00A3237808BF0076
:100B800021000D142000BE100D18BE14C0013F0836
:100B90006E3C031CCE2DFF30C000D42D3F08A93C75
:100BA0000318D42D0130C000C0080319EB2D4108F3
:100BB00040020319EB2D400BE42D01303B023C02B7
:100BC0000318E42DBC0AEB2D4008FF3C031DEB2D60
:100BD000BC08031DBC033D083C020319762E3C08EB
:100BE000D0000330D100E321C6017808C5004508D4
:100BF000230091009513151413082000C200013042
:100C00004507C8000030463DC90048082300910050
:100C10009513151413082000C30002304507C800BF
:100C20000030463DC9004808230091009513151473
:100C300013082000C4004208CA004308CB0044083F
:100C4000CC0040230130D000D1004A2201303C07C3
:100C5000C8008A3023009100003092000310063053
:100C60002000CB00A6224808CB001B30CC000B2371
:100C70002F30CF0081223B08CB001B30CC000B2350
:100C80008F302300910000309200031407302000C1
:100C9000CB00A6220130D0000230D1004A225230CF
:100CA000CF0081223A30CF0081224208CB000330AE
:100CB000CC000B232030CF0081224730CF0081228F
:100CC0003A30CF0081224308CB000330CC000B2305
:100CD0002030CF0081224230CF0081223A30CF0035
:100CE00081224408CB000330CC000B23BE18842E95
:100CF0003E1C842E21000D1420000D1C7A2ECA01EA
:100D0000CB01CC0140238F2E3C08BD004008C10020
:100D10003E10BE183E143230D000AE20BB2D8031C4
:100D20002E2F6A30210099000D168D142400171003
:100D300097109711093092002830950094171413DA
:100D400001302000AB000830AC000130B10032149B
:100D5000B301B401B601B50123008C018D0122005D
:100D600092019101940193012000AD01AE01AF0108
:100D7000B0014A2908227808B700553CB800402144
:100D80000130D000D1004A2294302300910000307D
:100D90009200031004302000CB00A6223708CB00BD
:100DA0001B30CC000B2397302300910000309200C1
:100DB000031008302000CB00A6223808CB001B30DF
:100DC000CC000B230530BB00F030D000AE20BB0BB5
:100DD000E42EAE01AF01B001CA01CB01CC0140232A
:100DE000952BCA01A3237808B90039086E3C031C6F
:100DF000FC2E0130B100022F3908A93C0318022F44
:100E00000230B1000130D0000230D1004A22310B53
:100E1000112F9D30230091000030920020004B23C1
:100E20001C2F3108023C031D1C2FA630230091000B
:100E30000030920020004B2321000D1420003A10B6
:100E40000D183A143A18302F321C302F310B2A2F3C
:100E5000CB2B2E2F3108023C03198D2D3214F02E8E
:100E600032103A1832146430D000AE20F02E6300F5
:020000040001F9
:04000E00843FFF1E0E
:00000001FF
;PIC16F1827
;CRC=F97E  CREATED="06-nov.-25 14:13"
