:060000008031262E0000F5
:0800080083018031200077081C
:10001000A0007808A1007908A2007A08A3002300B4
:1000200011082000A400230012082000A5002300CE
:1000300013082000A600230014082000A7008B1D31
:1000400023280B1840288B1E27280B19422820082C
:10005000F7002108F8002208F9002308FA00240814
:10006000230091002000250823009200200026088C
:10007000230093002000270823009400090020009B
:1000800080316028803168280B0028340C3401341A
:100090000634CC32633A75396110C5225029CF2617
:1000A0000000CE372034E13CA0316F366F39E5399E
:1000B0000001C337EC377210A53AAF12751D00006E
:1000C000FF302700160696050B10803120002728E8
:1000D000B40A330834020318732821000D132200D8
:1000E0000D177728200021000D1322000D130B118E
:1000F000803120002728311DD3327410E337EC37CC
:100100007210321DD6327200D3326C1D5210521D45
:100110002518B33A0001C73A6139E430E437A01139
:10012000A53A0001C5225029CF262026EC32EE3018
:1001300000005039E539E937EE3020316F3A6F373A
:100140000001F030F230203B6F36F63272172E1776
:100150000000C3376C1DA53A20266931F232731DA9
:10016000A53A0001BE29653AA0216F366F392010EB
:10017000201020100001201FD6327210C73A6139BA
:10018000E430E4377300203085002A308400000812
:100190000319D8280130F800F701F70BCD28F80B28
:1001A000CC284A30F700F70BD328D628800BCA2872
:1001B0000800240095132000911157082400910095
:1001C0000230951BEA282000911DE428003024000D
:1001D000161B0130F800200008005508003A0319EA
:1001E000F528013A031915293629540EF700F03085
:1001F000F70577082C04D600D700D9200000540E4C
:10020000F700F030F705770804382C04D600D70043
:10021000D9200A29540EF700F030F7057708FB398A
:100220002C04D600D700D9203629540EF700F03020
:10023000F705770801382C04D600D700D920000034
:10024000540EF700F030F7057708013804382C0415
:10025000D600D700D9202C29540EF700F030F7052E
:10026000770801382C04D600D700D92008002400D4
:1002700016141618392920002808D700D920510E45
:10028000D3000F30D3055308D4005208D500ED2019
:1002900051080F39D300D4005208D500ED202400B6
:1002A000161516195129200008000130D100D2017D
:1002B00037210230CA00C3200130AB00080068308B
:1002C000210099001E109E101E11033023008C0087
:1002D00000308D0021001E169E161E139E171D1441
:1002E0004E302000BB001030BC000230BD003B0887
:1002F000A8003D08A9003C08AA000B138B138B1B18
:100300007E293230CA00C32024001614161886290C
:1003100020002808D700D920D401D501ED200F30C6
:10032000CA00C3200130BE003E08033C031CA129C3
:100330000330D400D501ED200530CA00C320BE0A29
:1003400094290230D400D501ED200530CA00C32025
:10035000240016151619AA292000BE013E08033CE8
:10036000031CBD293E084420BF00D100D201372123
:100370000530CA00C320BE0AAE295521C0308B0407
:10038000552122001D109D101D1121008D112200EC
:100390008D110C3025009300940195011E109E10C4
:1003A0000130960022009D111D1221000D13220024
:1003B0000D130C3025009A009B019C011E119E110B
:1003C00001309D000030F800043820009C00FF3010
:1003D0009B0025009101980121001508C0390738BC
:1003E0009500200095018B16C0308B0480314E2E75
:1003F000F701F801480803104918F707F70CF80C43
:10040000C918F707F70CF80C4919F707F70CF80C9F
:10041000C919F707F70CF80C491AF707F70CF80C8D
:10042000C91AF707F70CF80C491BF707F70CF80C7B
:10043000C91BF707F70CF80C0800C201C6014608F3
:10044000543C031C5C2A4608C8000330C900F8214C
:100450007808C70047082300910095131514130866
:100460002000C3004608C8000330C900F82101304D
:100470007807C70047082300910095131514130847
:100480002000C4004608C8000330C900F82102302B
:100490007807C70047082300910095131514130827
:1004A0002000C500430F592A440F592A450F592AE5
:1004B0005C2AC20AC60A1F2A4208F80008004B0834
:1004C00029020318662A2908CC00682A4B08CC00A8
:1004D0004C08013A0319762A033A0319782A013A9B
:1004E00003197B2A073A03197E2A812ACE01822A20
:1004F0004030CE00822A1430CE00822A5430CE0002
:10050000822ACE014A082A020318892A2A08CD0025
:100510008B2A4A08CD0001304D024E07CF004F080C
:100520008038D000D100D2013721080049080C3AA8
:100530000319A12A063A0319A32A023A0319B02A79
:10054000B52A5521BA2AAB0A2B0829020318AA2A70
:100550000130AB000130CA002B08CB005F22BA2A61
:100560001030D100D2013721BA2A4908D100013018
:10057000D200372108000B088B13230095171514A0
:1005800000000000891B8B170318EC2A13087F3921
:100590002000C600230011082000C7002300120815
:1005A0002000C8004608C900962247082300910091
:1005B00020004808230092000B088B139517151490
:1005C00000000000891B8B172000C30BE82AEA2AD1
:1005D0002300EC2A0A2B2300130D140D7F39200071
:1005E000C600230011082000C700230012082000C5
:1005F000C8004608C9009622470823009100200041
:10060000480823009200910A0319920A031020005F
:10061000C30BBB2A08004608F80145020318132B38
:100620004508F7001F2BF7010830C700C50DF70D6F
:10063000460877020318F700F80DC70B162B0800C1
:1006400078084308C5006430C6000B237708C30050
:1006500078083030031D332BC41C3A2BC4193A2BB5
:10066000441A2030362BC41144124414F807780879
:10067000C90096224308C5000A30C6000B2377083C
:10068000C30078083030031D4B2BC4194F2B441C7A
:100690004F2B441A2030F8077808C90096223030D2
:1006A000C3074308C90096220800420825009100AC
:1006B000200043082500980020004408B3000800EB
:1006C0000B088B1323009517151400000000891BDD
:1006D0008B1713087F390319A82B2000C3002300B0
:1006E00011082000C400230012082000C5004308A0
:1006F000C9009622440823009100200045082300E9
:1007000092000B088B139517151400000000891B2D
:100710008B17130D140D7F390319A82B2000C3006C
:10072000230011082000C400230012082000C50087
:100730004308C90096224408230091002000450880
:1007400023009200910A0319920A2000602B2300D3
:100750002000080055210130CA00CB005F227B3009
:100760002300910000309200200060238031852E0C
:10077000420DF700F70DFC30F70521001D08833905
:1007800077049D000630F700F70BC42B00009D1482
:100790001130F7009D1CCE2BF70BCA2B1B08F8005D
:1007A0001C082000C4007808C300440CFA00430C65
:1007B000F900FA0CF90C3F30FA057908F800080046
:1007C000FF30BD00BE00BF01C0145521843023009E
:1007D000910000309200031008302000C300BB22BB
:1007E0002E08C3000330C40020230130CA000230A9
:1007F000CB005F224730C90096223A30C9009622CA
:100800002F08C3000330C40020232030C9009622E3
:100810004230C90096223A30C90096223008C300FF
:100820000330C4002023C201B8237808BB00013084
:10083000C200B8237808BC0021000D14200040102D
:100840000D1840143B08553C031C282CBF01312CCB
:100850003B08AA3C031C2F2C0130BF00312C023076
:10086000BF003F0803193B2C013A03193E2C033A01
:100870000319412C432C3C08AE00432C3C08AF002C
:10088000432C3C08B0003D083B0203195C2C0530AA
:10089000CA000130CB005F22BF08031D532C523029
:1008A000C90096225C2C3F0B592C4730C900962278
:1008B0005C2C4230C90096223E083C0203198A2C67
:1008C0003F0803196A2C013A0319752C033A0319DE
:1008D000802C8A2C0930CA000130CB005F222E0800
:1008E000C3000330C40020238A2C0330CA00023026
:1008F000CB005F222F08C3000330C40020238A2CC2
:100900000B30CA000230CB005F223008C300033036
:10091000C40020232E08C2002F08C3003008C400E2
:1009200055233B08BD003C08BE0040183D2DC01CAF
:100930003D2D1D227808C1004108543C031C242D84
:100940003008C4002F08C3002E08C2004108C500AB
:100950004508C8000330C900F821C7017808C6005F
:100960004508543C031C052D0B08F7008B13460863
:1009700023009100200042082300930095131515D1
:1009800055309600AA30960095149518C52C15116F
:1009900077088B04013020004607C8000030473D2F
:1009A000C9000B08F7008B134808230091002000B2
:1009B0004308230093009513151555309600AA306F
:1009C000960095149518E22C151177088B040230C7
:1009D00020004607C8000030473DC9000B08F7005B
:1009E0008B13480823009100200044082300930043
:1009F0009513151555309600AA3096009514951844
:100A0000FF2C151177088B04200055210130CA00F6
:100A1000CB005F2201304107C2008B3023009100E0
:100A20000030920003100A302000C300BB224208AD
:100A3000C3001B30C40020230330C200C830CA00EA
:100A4000C320C20B1E2D372D55210130CA00CB000B
:100A50005F2292302300910000309200200060233A
:100A60000330C200C830CA00C320C20B322D21009F
:100A70000D1420000D1C372D412DC0104018C0143E
:100A8000132C8031BA2E55210130CA00CB005F22D1
:100A90004930230091000030920020006023043090
:100AA000C000C830CA00C320C00B512D1D227808D9
:100AB000BB00BB08031D702D55210130CA00CB00BF
:100AC0005F2251302300910000309200200060230B
:100AD0000430C000FA30CA00C320C00B6A2DFD2DBF
:100AE000BC013B083C020318FD2D3C08C800033044
:100AF000C900F8217808C000400823009100951330
:100B0000151413082000BD003C08C8000330C900BC
:100B1000F82101307807C0004008230091009513A8
:100B2000151413082000BE003C08C8000330C9009B
:100B3000F82102307807C000400823009100951387
:100B4000151413082000BF0055210130CA00CB0046
:100B50005F2201303C07C000593023009100003073
:100B60009200031006302000C300BB224008C300DF
:100B70001B30C40020232F30C90096223B08C3003D
:100B80001B30C40020233A30C90096220130CA002D
:100B90000230CB005F225230C90096223A30C900A1
:100BA00096223D08C3000330C40020232030C90032
:100BB00096224730C90096223A30C90096223E0854
:100BC000C3000330C40020230B30CA000230CB0026
:100BD0005F224230C90096223A30C90096223F086F
:100BE000C3000330C40020230430C000E130CA0039
:100BF000C320C00BF62DBC0A712D55210130CA004F
:100C0000CB005F2299302300910000309200200039
:100C100060230130CA000230CB005F22A1302300E4
:100C20009100003092002000602321000D1420006C
:100C30000D1C152E21000D1420000D181A2E210058
:100C40000D1420000D1C1F2E8031BA2E6A30210099
:100C500099000D168D142400171097109711093064
:100C60009200283095009417141301302000AB0037
:100C70000830AC00B1013214B301B401B601B501C2
:100C800023008C018D0122009201910194019301B6
:100C90002000AD01AE01AF01B0015F291D2278082F
:100CA000B700553CB80055210130CA00CB005F2287
:100CB000A93023009100003092000310043020007E
:100CC000C300BB223708C3001B30C4002023AC3054
:100CD0002300910000309200031008302000C30070
:100CE000BB223808C3001B30C40020230530BB00E2
:100CF000F030CA00C320BB0B782EAE01AF01B001AB
:100D0000C201C301C4015523AA2BC201B82378082C
:100D1000B90039087F3C031C902E0130B100922E9F
:100D20000230B1000130CA000230CB005F22310B2B
:100D3000A12EB230230091000030920020006023E9
:100D4000A82EBB30230091000030920020006023C9
:100D500021000D1420003A100D183A143A18BA2E3A
:100D6000321CBA2E310BB62EE02BBA2E3108023CC3
:100D70000319432D32103A1832146430CA00C320CC
:040D8000842E63005A
:020000040001F9
:04000E00843FFF1E0E
:00000001FF
;PIC16F1827
;CRC=C5A1  CREATED="05-Nov-25 23:42"
