:100000008031622D00000B0028340C34013406349A
:10001000311DD3327410E337EC377210321DD632F3
:100020007200D3326C1D4710521D2518B33A0000E0
:10003000C73A6139E430E437A011A53A0001C5227E
:100040005029CF262026EC32EE300000CE37203467
:10005000E13CA0316F366F39E5390001C337EC3729
:100060007210A53AAF12751D20102010201000014B
:10007000C3376C1DA53A20266931F232731DA53AAB
:100080000001BE29653AA0216F366F39201020107B
:1000900020100001201FD6327210C73A6139E430B7
:1000A000E4377300203085002430840000080319F1
:1000B00067280130F800F701F70B5C28F80B5B2884
:1000C0004A30F700F70B62286528800B5928080092
:1000D0002400951320009111510824009100023052
:1000E000951B79282000911D732800302400161BD1
:1000F0000130F800200008004F08003A0319842856
:10010000013A0319A428C5284E0EF700F030F70570
:1001100077082404D000D100682000004E0EF700BC
:10012000F030F705770804382404D000D1006820A7
:1001300099284E0EF700F030F7057708FB392404B4
:10014000D000D1006820C5284E0EF700F030F7052A
:10015000770801382404D000D100682000004E0E3A
:10016000F700F030F7057708013804382404D00090
:10017000D1006820BB284E0EF700F030F705770855
:1001800001382404D000D10068200800240016148F
:100190001618C82820002008D10068204B0ECD007A
:1001A0000F30CD054D08CE004C08CF007C204B0809
:1001B0000F39CD00CE004C08CF007C20240016154E
:1001C0001619E028200008000130CB00CC01C62021
:1001D0000230C40052200130A30008006830210022
:1001E00099001E109E101E11033023008C00003059
:1001F0008D0021001E169E161E139E171D144E30D4
:100200002000B2001030B3000230B4003208A00069
:100210003408A1003308A2000B138B138B1B0D298C
:100220003230C4005220240016141618152920005C
:100230002008D1006820CE01CF017C200F30C400FF
:1002400052200130B5003508033C031C302903302F
:10025000CE00CF017C200530C4005220B50A2329EE
:100260000230CE00CF017C200530C4005220240093
:100270001615161939292000B5013508033C031C51
:100280004C2935080320B600CB00CC01C620053030
:10029000C4005220B50A3D29E420C0308B04E4207C
:1002A00022001D109D101D1121008D1122008D11A5
:1002B0000C3025009300940195011E109E10013012
:1002C000960022009D111D1221000D1322000D1316
:1002D0000C3025009A009B019C011E119E110130DB
:1002E0009D0021008C1122008C110C3026009300FF
:1002F00025001E129E120030F800063820009C00D7
:10030000FF309B0021000D08F7392000B2002100CA
:100310008D00250091019801FF30260091001308FF
:10032000CF3930389300803120008B2DF701F80150
:10033000440803104518F707F70CF80CC518F70721
:10034000F70CF80C4519F707F70CF80CC519F70767
:10035000F70CF80C451AF707F70CF80CC51AF70755
:10036000F70CF80C451BF707F70CF80CC51BF70743
:10037000F70CF80C0800BD01C1014108543C031CF6
:10038000FA294108C4000330C50096217808C2004C
:100390004208230091009513151413082000BE0095
:1003A0004108C4000330C500962101307807C2001F
:1003B0004208230091009513151413082000BF0074
:1003C0004108C4000330C500962102307807C200FE
:1003D0004208230091009513151413082000C00053
:1003E0003E0FF7293F0FF729400FF729FA29BD0AD9
:1003F000C10ABD293D08F80008004508210203187C
:10040000042A2108C600062A4508C6004608013A03
:100410000319142A033A0319162A013A0319192A4F
:10042000073A03191C2A1F2AC801202A4030C80095
:10043000202A1430C800202A5430C800202AC801BD
:10044000440822020318272A2208C700292A440840
:10045000C700013047024807C90049088038CA0070
:10046000CB00CC01C620080043080C3A03193F2AF0
:10047000063A0319412A023A03194E2A532AE42064
:10048000582AA30A230821020318482A0130A3008E
:100490000130C4002308C500FD21582A1030CB00CC
:1004A000CC01C620582A4308CB000130CC00C6201E
:1004B00008000B088B13230095171514000000008B
:1004C000891B8B1703188A2A13087F392000C00064
:1004D000230011082000C100230012082000C200E0
:1004E0004008C30034224108230091002000420844
:1004F000230092000B088B139517151400000000C1
:10050000891B8B172000BE0B862A882A23008A2A83
:10051000A82A2300130D140D7F392000C0002300EA
:1005200011082000C100230012082000C20040086A
:10053000C300342241082300910020004208230018
:100540009200910A0319920A03102000BE0B592A47
:1005500008004108F80140020318B12A4008F700DA
:10056000BD2AF7010830C200C00DF70D410877021F
:100570000318F700F80DC20BB42A080078083E08EB
:10058000C0006430C100A9227708BE00780830306E
:10059000031DD12ABF1CD82ABF19D82A3F1A2030E0
:1005A000D42ABF113F123F14F8077808C300342241
:1005B0003E08C0000A30C100A9227708BE007808B2
:1005C0003030031DE92ABF19ED2A3F1CED2A3F1ADE
:1005D0002030F8077808C30034223030BE073E08C8
:1005E000C300342208003D082500910020003E0889
:1005F0002500980020003F082600910020000800F8
:100600000B088B1323009517151400000000891B9D
:100610008B1713087F390319482B2000BD002300D6
:1006200011082000BE00230012082000BF003D0872
:10063000C30034223E082300910020003F0823001D
:1006400092000B088B139517151400000000891BEE
:100650008B17130D140D7F390319482B2000BD0093
:10066000230011082000BE00230012082000BF0054
:100670003D08C30034223E082300910020003F08BB
:1006800023009200910A0319920A2000002B2300F4
:1006900020000800E4200130C400C500FD2108301E
:1006A0002300910000309200200000238031C22DF1
:1006B0003D0DF700F70DFC30F70521001D088339CB
:1006C00077049D000630F700F70B642B00009D14A3
:1006D0001130F7009D1C6E2BF70B6A2B1B08F800DE
:1006E0001C082000BF007808BE003F0CFA003E0C3A
:1006F000F900FA0CF90C3F30FA057908F800080007
:100700000130B400FF30B5000130B600B700B800CA
:10071000B9140530BA00BB01E42011302300910068
:1007200000309200031008302000BE005922260835
:10073000BE000330BF00BE220130C4000230C5003D
:10074000FD214730C30034223A30C3003422270849
:10075000BE000330BF00BE222030C300342242302E
:10076000C30034223A30C30034222808BE000330CC
:10077000BF00BE22BD0158237808B2000130BD0081
:1007800058237808B30021000D14200039100D18EB
:100790003914B208031DCF2B0130B402D32B320F12
:1007A000D32B0130B407FA30C40052203408FF3C88
:1007B000031DDC2BB401E22B3408033C031DE22BA8
:1007C0000230B4003308323C031CE92BFF30BB007D
:1007D000F12B3308CC3C0318F02B0130BB00F12B7C
:1007E000BB0134080319FB2B013A0319182C033AF7
:1007F0000319352C512C3A0826020318052C3B0806
:10080000FF3C031D052C512C0F2C3A08FF3C2602FF
:1008100003190F2C031C0F2C3B0B0F2C512C3B08E6
:10082000C4003A08C500962178082607A600512C76
:100830003A0827020318222C3B08FF3C031D222CF8
:10084000512C2C2C3A08FF3C270203192C2C031C9A
:100850002C2C3B0B2C2C512C3B08C4003A08C50017
:10086000962178082707A700512C3A082802031878
:100870003F2C3B08FF3C031D3F2C512C492C3A08D0
:10088000FF3C28020319492C031C492C3B0B492C23
:10089000512C3B08C4003A08C50096217808280767
:1008A000A8003508340203196A2C0530C400013051
:1008B000C500FD21B408031D612C5230C300342251
:1008C0006A2C340B672C4730C30034226A2C423028
:1008D000C3003422360826020319782C0930C400DC
:1008E0000130C500FD212608BE000330BF00BE2236
:1008F000370827020319862C0330C4000230C500D4
:10090000FD212708BE000330BF00BE2238082802A0
:100910000319942C0B30C4000230C500FD212808B7
:10092000BE000330BF00BE222608BD002708BE005F
:100930002808BF00F3223408B5002808B8002708AB
:10094000B7002608B6003918592DB91C592DBB21FE
:100950007808BC003C08543C031C392D2808BF0013
:100960002708BE002608BD003C08C0004008C4009F
:100970000330C5009621C2017808C1004008543CEC
:10098000031C132D0B08F7008B1341082300910063
:1009900020003D082300930095131515553096004F
:1009A000AA30960095149518D32C151177088B044E
:1009B000013020004107C4000030423DC5000B0853
:1009C000F7008B1344082300910020003E08230009
:1009D00093009513151555309600AA30960095147E
:1009E0009518F02C151177088B0402302000410770
:1009F000C4000030423DC5000B08F7008B134408CB
:100A00002300910020003F08230093009513151543
:100A100055309600AA309600951495180D2D151195
:100A200077088B042000E4200130C400C500FD21BC
:100A300001303C07BD0018302300910000309200C7
:100A400003100A302000BE0059223D08BE001B30B2
:100A5000BF00BE220430BD00FA30C4005220BD0BDE
:100A60002C2D0430BD00FA30C4005220BD0B332DB4
:100A7000532DE4200130C400C500FD211F302300A8
:100A8000910000309200200000230430BD00FA30B5
:100A9000C4005220BD0B472D0430BD00FA30C40005
:100AA0005220BD0B4E2D21000D1420000D1C532D86
:100AB000602DB9103918B9146430C4005220BA2B13
:100AC0008031EE2D6A30210099000D168D1424001E
:100AD000171097109711093092002830950094173D
:100AE000141301302000A3000830A4000130A90035
:100AF0002A14AB01AC01AE01AD0123008C018D01C4
:100B0000220092019101940193012000A501A60108
:100B1000A701A801EE28BB217808AF00553CB00022
:100B2000E4200130C400C500FD21383023009100CD
:100B300000309200031004302000BE0059222F081C
:100B4000BE001B30BF00BE223B30230091000030AE
:100B50009200031008302000BE0059223008BE0069
:100B60001B30BF00BE220530B200F030C40052205E
:100B7000B20BB52DA601A701A801BD01BE01BF01A1
:100B8000F3224A2BBD0158237808B1003108323CCA
:100B9000031CCD2D0130A900D32D3108CC3C031806
:100BA000D32D0230A9000130C4000230C500FD2160
:100BB000290BE22D413023009100003092002000EB
:100BC0000023ED2D2908023C031DED2D4A302300A2
:100BD00091000030920020000023802B6430C4007C
:060BE0005220C12D63004C
:020000040001F9
:04000E00843FFF1E0E
:00000001FF
;PIC16F1827
;CRC=7505  CREATED="10-nov.-25 17:43"
