:0600000080317A280000A7
:0800080083018031200077081C
:10001000A0007808A1007908A2007A08A3008B1E2E
:1000200013280B192328850191308400001F1A28FA
:10003000111B25282008F7002108F8002208F900E4
:100040002308FA0009008031382880312728113030
:10005000F70021009D1C2E28F70B2A281B082000E2
:10006000A5002508220099002000111380311A28CC
:100070008030950021009D140B11803120001A283A
:1000800021001508C73908389500803020009500F8
:100090008B16C0308B0480318B28013021008C00FE
:1000A00000308D00803120008C28A0302200980084
:1000B000803120008D2821001E109E101E1101305D
:1000C00023008C0000308D0021009D141E169E160A
:1000D0001E139E171D14F8001D08833978049D0017
:1000E000803120008E2821001117C0308B04803110
:1000F00020008F286A302100990020002414A410C9
:10010000A50123008C018D0122009201910194012F
:100110009301200040284D2855285B2873288F28FC
:0201200063007A
:020000040001F9
:04000E00843FFF1E0E
:00000001FF
;PIC16F1827
;CRC=B13B  CREATED="17-sep.-25 10:23"
