:060000008031652B0000B9
:0800080083018031200077081C
:10001000A0007808A1007908A2007A08A3002300B4
:1000200011082000A400230012082000A5002300CE
:1000300013082000A600230014082000A700850153
:1000400091308400001C262811184D28850191301C
:100050008400801E2D28911A4F288501913084003C
:10006000001F3428111B51282008F7002108F80030
:100070002208F9002308FA00240823009100200038
:10008000250823009200200026082300930020006A
:10009000270823009400090020008031962A80312F
:1000A000FA2980318D281030C000F701FA01BD0C0B
:1000B000BC0C031C61283E08F7070318FA0A3F0826
:1000C000FA07FA0CF70CF90CF80CC00B57280800CB
:1000D000F801F901F701FA014108031D72284008EF
:1000E00003198C281030C2000310BE0DBF0DF70D90
:1000F000FA0D41087A02031D7F2840087702031C8D
:1001000088284008F702031CFA034108FA02031486
:10011000F80DF90DC20B742808001130F70021000A
:100120009D1C9428F70B90281B08F8001C08200041
:10013000AB007808AA002B08BD002A08BC00BF014C
:100140001F30BE0053207908BD007808BC00790834
:10015000BF007808BE000330C100FF30C000682037
:1001600078082200990021009D142000111380318D
:1001700034283208F7003308FA007A08031DC4282F
:10018000643077020319D52801307A02031DCC2888
:10019000F43077020319DC2803307A02031DD428D7
:1001A000E83077020319E328E828CF30B50004309F
:1001B000B4000130B600E8280B30B500DC30B400E4
:1001C0000130B600E8280B30B500DC30B400B601D1
:1001D000353098009901960135089700340896004B
:1001E00021001114200008000B088B132300951721
:1001F000151400000000891B8B1703182829130809
:100200007F392000C000230011082000C100230016
:1002100012082000C2004008111E0C2923009A0079
:100220002000410823009100200042082300920092
:100230000B088B139517151400000000891B8B17F2
:100240002000BE0B24292629230028294929230020
:10025000130D140D7F392000C00023001108200069
:10026000C100230012082000C2004008111E3629D8
:1002700023009A002000410823009100200042083A
:1002800023009200910A0319920A03102000BE0B6A
:10029000F42808000508CC000408CB003F0EF03815
:1002A000C700C707E23EC800323ECA003F080F3908
:1002B000C807C807CA07E93EC900C907C9073E0EF3
:1002C0000F39C907CA07C90DCA0DCA09CA0D3E08A8
:1002D0000F39CA07C70D0730C6000A30CA07C9035D
:1002E000031C6E29C907C803031C7229C807C7036A
:1002F000031C7629C707C603031C7A292030850012
:100300002630840007304B054B1384070030853DB1
:1003100004082A3C031D90290508203C03194B17AB
:100320000008F700031D9C294B1B9C294B1AA6298A
:10033000CB199C2920309F29CB154B123030F70761
:100340007708111EA12923009A00200001314B1FBC
:10035000882908000B088B1323009517151400003B
:100360000000891B8B1713087F390319F829200017
:10037000C000230011082000C10023001208200043
:10038000C2004008111EC22923009A002000410823
:100390002300910020004208230092000B088B13D9
:1003A0009517151400000000891B8B17130D140DF1
:1003B0007F390319F8292000C0002300110820000C
:1003C000C100230012082000C2004008111EE629C7
:1003D00023009A00200041082300910020004208D9
:1003E00023009200910A0319920A2000AA292300EF
:1003F00020000800911EFA29230019082000BC00E3
:100400003C080D3C0319082A3C080A3C031D852AB8
:10041000B1080319842A0C3031078400203085008C
:100420000318850A8001B1012C08633C031D582A7A
:100430002D082F3C0318582A2D08323C031C582A3B
:10044000AE08031D582A2D08303A03192E2A013A06
:100450000319322A033A0319372A3B2AB3016430BD
:10046000B2003B2A0130B300F430B2003B2A033023
:10047000B300E830B200B920FD3023009100023013
:100480009200031017302000BE00F42010308400CA
:100490003308BF003208BE004A210A302300910011
:1004A00003309200031005302000BE00F420842A9F
:1004B0002C08733C031D7D2A2D08303C0319642A47
:1004C0002D08313C031D7D2AAE08031D7D2A2D0811
:1004D000313C031D742A29140D3023009100033090
:1004E00092002000AA217C2A2910173023009100B5
:1004F000033092002000AA21842A21302300910099
:10050000033092002000AA21932A3108033C031CE7
:10051000932A3108B10A0C3E84002030850003186C
:10052000850A3C08800091128031342896013508F4
:100530009700340896003208E83C031DA92A3308C6
:10054000033C031DA92AB60A3608013C0318F42A05
:10055000B601291CF42A21009D141130F7009D1CBE
:10056000B32AF70BAF2A1B08F8001C082000AB00C9
:100570007808AA002B08BD002A08BC00BF011F3064
:10058000BE0053207908BD007808BC007908BF0080
:100590007808BE000330C100FF30C0006820780832
:1005A0002200990020002B08BD002A08BC00F7306B
:1005B0002300910002309200031005302000BE009D
:1005C000F420103084003D08BF003C08BE004A21E2
:1005D0000D30111EE92A23009A000A302000111E56
:1005E000EF2A23009A002000111080313428412284
:1005F000431DA012EC3A0D050000CD3AE5397439DF
:10060000E537A0316F37E634E73AF230E437A0300F
:10061000A012EC3AA036F3060A00CD3AE539743957
:10062000E537A034EE34E3346132EF060A00CD3A08
:10063000E5397439E5372032653A65376932EF06B6
:100640000A00C337ED306E326F10E432F3316F378A
:10065000EF316932EF060A00D334733AE5366110A0
:10066000EC34733A6F10F030F230A031EF3665376A
:10067000FA3072170D05000021009116C0308B046E
:1006800002308D0001308C0080312000872B21004A
:100690001E109E101E11013023008C0000308D00B2
:1006A00021001E169E161E139E171D14F8001D080D
:1006B000833978049D009D1480312000882BA03060
:1006C0002200980080312000892B6A302100990097
:1006D00022001E1423009F1119309B00A6309E009B
:1006E00090309D0020002910AB01AA01B101B30197
:1006F0006430B200B601B801B70123008C018D014E
:100700002200920191019401930120003C2B472B80
:100710005F2BB9202C302300910003309200200081
:10072000A8018B1BA8178B13AA21A81B8B17972B2B
:02073000630064
:020000040001F9
:04000E00843FFF1E0E
:00000001FF
;PIC16F1827
;CRC=B818  CREATED="07-Oct-25 21:48"
