:10000000803102290000C837EC300000D024C3182A
:100010003623311CB21B00002030850006308400DE
:100020000008031921280130F800F701F70B162802
:10003000F80B15284A30F700F70B1C281F28800BF7
:100040001328080024009513200091112D08240086
:1000500091000230951B33282000911D2D2800307F
:100060002400161B0130F800200008002908083879
:100070002A04AB002400161416183C284E30200029
:10008000AD0022202B080438AC00AD002220000077
:100090002B08FB39AC00AD002220240016151619E0
:1000A0004F28200008002608F039A800A9002708DA
:1000B000AA003620260EF700F030F7057708F03951
:1000C000A800A9002708AA00362008002508A600D5
:1000D000A70153200230A6000C2008003230A600F1
:1000E0000C203030A900AA0136200530A6000C20D3
:1000F0003030A900AA0136204230F700F70B7E28E5
:1001000000003030A900AA0136200530A6000C20DE
:100110002030A900AA0136200530A6000C20283086
:10012000A50066200C30A50066200630A5006620DC
:100130000130A50066200530A6000C2080311E2964
:10014000230BA72801302202803EA400AB280130F7
:100150002202C03EA4002408A5006620080025084D
:10016000A6000130A70053200130A6000C20080093
:100170000B088B1323009517151400000000891B32
:100180008B1713087F39031900292000A2002300D0
:1001900011082000A300230012082000A400220858
:1001A000A500AF202308230091002000240823008D
:1001B00092000B088B139517151400000000891B83
:1001C0008B17130D140D7F39031900292000A2008D
:1001D000230011082000A300230012082000A4001F
:1001E0002208A500AF202308230091002000240846
:1001F00023009200910A0319920A2000B8282300D4
:10020000200008006A30210099000D168D1424008A
:100210001710971097110930920028309500941705
:1002200014132000A101A00123008C018D012200E4
:10023000920191019401930120006E280130A200E7
:10024000A300A02003302300910000309200200082
:10025000B8200130A2000230A300A0200630230005
:0E0260009100003092002000B8203529630084
:020000040001F9
:04000E00C43FFF1ECE
:00000001FF
;PIC16F1827
;CRC=053C  CREATED="23-sep.-25 14:26"
