:100000008031D92B00000B0028340C340134063425
:10001000CC32633A75396110C5225029CF263A0097
:10002000D2326710A53A3A10253675107300D232D5
:10003000671DA53A20266931F232731DA53A0001E9
:10004000D434E536F0373A10253675107300C73AC8
:100050006139E4307210423A6E1052213000C73AD2
:100060006139E430E437A011A53A0001D13A653294
:100070006137BA12750020308500273084000008EF
:10008000031950280130F800F701F70B4528F80B49
:1000900044284A30F700F70B4B284E28800B4228A3
:1000A00008002400951320009111540824009100A9
:1000B0000230951B62282000911D5C28003024002E
:1000C000161B0130F800200008005208003A0319FE
:1000D0006D28013A03198D28AE28510EF700F03033
:1000E000F70577082404D300D40051200000510EF6
:1000F000F700F030F705770804382404D300D40063
:1001000051208228510EF700F030F7057708FB39AF
:100110002404D300D4005120AE28510EF700F03053
:10012000F705770801382404D300D40051200000DB
:10013000510EF700F030F705770801380438240431
:10014000D300D4005120A428510EF700F030F70559
:10015000770801382404D300D4005120080024007B
:1001600016141618B12820002008D40051204E0E75
:10017000D0000F30D0055008D1004F08D2006520C4
:100180004E080F39D000D1004F08D200652024005E
:1001900016151619C928200008000130CE00CF011D
:1001A000AF200230C7003B200130A3000800340814
:1001B000A0003608A1003508A2000B138B138B1B7F
:1001C000DE283230C7003B20240016141618E6281B
:1001D00020002008D4005120D101D20165200F3029
:1001E000C7003B200130B7003708033C031C01293E
:1001F0000330D100D20165200530C7003B20B70A8B
:10020000F4280230D100D20165200530C7003B2020
:100210002400161516190A292000B7013708033CD7
:10022000031C1D2937080320B800CE00CF01AF20E2
:100230000530C7003B20B70A0E29CD20C0308B0403
:100240008031062C48082102031829292108C900F9
:100250002B294808C9004908013A03193929033AEA
:1002600003193B29013A03193E29073A0319412989
:100270004429CB0145294030CB0045291430CB001F
:1002800045295430CB004529CB01470822020318E9
:100290004C292208CA004E294708CA0001304A02E8
:1002A0004B07CC004C088038CD00CE00CF01AF20EA
:1002B000080046080C3A03196429063A031966290E
:1002C000023A031973297829CD207D29A30A23082E
:1002D000210203186D290130A3000130C700230853
:1002E000C80022217D291030CE00CF01AF207D290A
:1002F0004608CE000130CF00AF2008000B088B135A
:1003000023009517151400000000891B8B17130894
:100310007F390319C6292000BA00230011082000E4
:10032000BB00230012082000BC003A08C600592177
:100330003B082300910020003C08230092000B089A
:100340008B139517151400000000891B8B17130DD4
:10035000140D7F390319C6292000BA0023001108A3
:100360002000BB00230012082000BC003A08C60091
:1003700059213B082300910020003C0823009200F3
:10038000910A0319920A20007E2923002000080008
:100390000B088B1323009517151400000000891B10
:1003A0008B170318F92913087F392000BA0023009E
:1003B00011082000BB00230012082000BC003A08EE
:1003C000C60059213B082300910020003C0823006F
:1003D00092000B088B139517151400000000891B61
:1003E0008B172000B90BF529F7292300F929172AC3
:1003F0002300130D140D7F392000BA0023001108CB
:100400002000BB00230012082000BC003A08C600F0
:1004100059213B082300910020003C082300920052
:10042000910A0319920A03102000B90BC829080089
:100430003C08F8013B020318202A3B08F7002C2A4D
:10044000F7010830BD00BB0DF70D3C08770203181B
:10045000F700F80DBD0B232A080078083908BB0007
:100460006430BC0018227708B90078083030031DCA
:10047000402ABA1C472ABA19472A3A1A2030432A76
:10048000BA113A123A14F8077808C6005921390807
:10049000BB000A30BC0018227708B9007808303059
:1004A000031D582ABA195C2A3A1C5C2A3A1A2030D1
:1004B000F8077808C60059213030B9073908C60056
:1004C000592108000508C5000408C4003A0EF03898
:1004D000C000C007E23EC100323EC3003A080F39F7
:1004E000C107C107C307E93EC200C207C207390EF0
:1004F0000F39C207C307C20DC30DC309C30D3908A5
:100500000F39C307C00D0730BF000A30C307C2034D
:10051000031C862AC207C103031C8A2AC107C00321
:10052000031C8E2AC007BF03031C922A20308500BB
:100530001F30840007304405441384070030853D94
:100540000408233C031DA82A0508203C031944176E
:100550000008F700031DB42A441BB42A441AC32A16
:10056000C419B42A2030B72AC41544123030F70712
:100570000508BA000408B9007708C60059213A08EE
:100580008500390884000131441FA02A0800CD20CD
:100590000130C700C800222108302300910000303C
:1005A000920020007E210630B800FA30C7003B20C0
:1005B000B80BD52ACD20B40134087F3C031C392B5D
:1005C0000310340DB800380823009100951315145A
:1005D00013082000B8000310340D013EB90039089B
:1005E000230091009513151413082000B900380852
:1005F000B6003908B500350F002B360F002B052B40
:10060000B508031D062BB6080319392BCD20013080
:10061000C700C800222101303407B8001030230081
:10062000910000309200031004302000B900C8216E
:100630003808B9001B30BA002D223A30C6005921C3
:100640002030C6005921103084003608BA00350821
:10065000B90062222030C60059217330C6005921EA
:100660000630B800FA30C7003B20B80B322BB40A72
:10067000DC2A8031072CB401B50135087F3C031C0E
:100680006A2B0310350DB80038082300910095132C
:10069000151413082000B8000310350D013EB900F1
:1006A0003908230091009513151413082000B90090
:1006B0003808B7003908B600360F612B370F612BA9
:1006C000662BB608031D672BB70803196A2BB40AFB
:1006D000B50A3D2B3408F80008003608B800370882
:1006E000B900BA013A087F3C031CD72B03103A0D1E
:1006F000BE003E0823009100951315141308200036
:10070000BE0003103A0D013EBF003F0823009100D8
:100710009513151413082000BF003E08BC003F08C5
:10072000BB003B0F962B3C0F962B9C2BBB08031D4D
:10073000D52BBC08031DD52B03103A0DBE000B08AA
:10074000F7008B133E082300910020003908230096
:1007500093009513151555309600AA309600951400
:100760009518B02B151177088B04031020003A0D53
:10077000013EBE000B08F7008B133E0823009100DA
:100780002000380823009300951315155530960066
:10079000AA30960095149518CB2B151177088B0469
:1007A000013020003A07AA00D72BBA0A722B8031F9
:1007B000862C6A30210099000D168D142400171024
:1007C0009710971109309200283095009417141350
:1007D00001302000A3000830A400A901A801A7014E
:1007E000A601AA012B14AF01AE0123008C018D01DB
:1007F000220092019101940193012000A5014E3045
:10080000B4001030B5000230B600D728C72A3B2309
:100810007808B000803CB100CD200130C700C8008E
:100820002221173023009100003092000310043081
:100830002000B900C8213008B9001B30BA002D22B1
:100840001A3023009100003092000310083020007D
:10085000B900C8213108B9001B30BA002D22083078
:10086000B400FA30C7003B20B40B312CA901A80119
:10087000A701A6010430B400FA30C7003B20B40B36
:100880003C2C0130A6070318A70A0319A80A03196C
:10089000A90ACD200130C700C80022212030230042
:1008A000910000309200031008302000B900C821E8
:1008B000103084002708BA002608B90062222030D0
:1008C000C60059217330C60059210130C7000230DB
:1008D000C800222127302300910000309200200020
:1008E0007E2132100D1832143218BB2C2B1CBB2C5D
:1008F0003230C7003B200D18BB2C2708B500260856
:10090000B4002708B7002608B6006D2B3B237808F3
:10091000B3003308803CB100CD200130C700C800CF
:1009200022212F30230091000030920003100A3062
:100930002000B900C8213308B9001B30BA002D22AD
:100940000130C7000230C800222136302300910058
:1009500000309200031007302000B900C821310890
:10096000B9001B30BA002D220630B400FA30C7009F
:100970003B20B40BB62C2B1032182B143A2C6300EE
:020000040001F9
:04000E00C43FFF1ECE
:00000001FF
;PIC16F1827
;CRC=682E  CREATED="26-oct.-25 09:56"
