:100000008031752D00000C008301803120007708BD
:10001000A0007808A1007908A2007A08A3002300B4
:1000200011082000A400230012082000A5002300CE
:1000300013082000A600230014082000A7008B1D31
:1000400023280B183C282008F7002108F800220874
:10005000F9002308FA002408230091002000250855
:100060002300920020002608230093002000270888
:10007000230094000900200080313E280130A806AA
:10008000FF302700160696050B108031200023282C
:100090008C20C4212028C921311BC61838193700EB
:1000A0004122431DA012342675008C20C421202833
:1000B000C12AD320C42700012030850029308400C4
:1000C0000008031971280130F800F701F70B6628C2
:1000D000F80B65284A30F700F70B6C286F28800B67
:1000E000632808005018782822000D127A28200072
:1000F00022000D1621000D122000D01883282200A6
:100100008D128528200022008D1621008D122000DE
:1001100050198E2822000D139028200022000D1760
:1001200021000D132000D019992822008D139B283F
:10013000200022008D1721008D13000022008D1554
:1001400021008D11A32822008D1121008D11200086
:100150000800D10121000D16003020000D1A0130D9
:10016000D10421008D16003020008D1A0130F700D7
:100170000310F70D7708D10421000D17003020007F
:100180000D1B0130F700F70DF70DFC30F705770870
:10019000D10421008D17003020008D1B0130F700A5
:1001A000F70DF70DF70DF830F7057708D104510872
:1001B000F800080021008D118D100D1122008D1006
:1001C00021008D100D168D160D178D1722000D159F
:1001D00021000D11000022008D1521008D1100005D
:1001E0002000A9207808D00022008D1121008D1157
:1001F000000022008D1521008D1100002000A92093
:100200007808CF0022008D1121008D110D128D1262
:100210000D138D132000500EF700F030F70577080E
:100220004F04F8007808CF00CF1F18292100E228DA
:10023000CD08031D1F2922008D1021292000220036
:100240008D1421008D10000022000D1121000D11D0
:10025000000022008D1121008D1120004E0ECF00D4
:100260000F30CF054F08D00072204E080F39CF0055
:10027000D00072200800FF3021008C0001308D007A
:1002800028302000B5000C30B6000130B700063031
:10029000B80022008D1121008D1122008D10210047
:1002A0008D1022000D1121000D110D128D120D1354
:1002B0008D138D118D100D110F302000C9005C20A1
:1002C0000130B4003408033C031C6E290330D00015
:1002D00072200530C9005C20B40A62290230D000C7
:1002E00072200530C9005C20B4013408033C031CB3
:1002F0008829153034078400203085000318850ACA
:100300000008B900CD013908CE00DA20B40A7529F9
:100310008031862D4A0B8D2990294030CB009129C0
:10032000CB0101304902CB074B088038CC00CD010E
:100330004C08CE00DA2008004808073A0319AA2919
:100340000B3A0319AF29063A0319B729023A0319E0
:10035000BD29C2290130C900CA008A21C729CD019F
:100360000130CE00DA200230C9005C20C7290130FC
:10037000C9000230CA008A21C729CD011030CE0041
:10038000DA20C7290130CD004808CE00DA20080065
:100390000B088B1323009517151400000000891B10
:1003A0008B1713087F390319102A2000B40023008B
:1003B00011082000B500230012082000B600340800
:1003C000C8009C2135082300910020003608230036
:1003D00092000B088B139517151400000000891B61
:1003E0008B17130D140D7F390319102A2000B40048
:1003F000230011082000B500230012082000B600D9
:100400003408C8009C2135082300910020003608DC
:1004100023009200910A0319920A2000C8292300A0
:100420002000080021001E109E101E110130230024
:100430008C0000308D0021001E169E161E139E1784
:100440001D14F8001D08833978049D0080312000B8
:100450008E2D8B15270014141514C0308B04803199
:1004600020008F2D8E30F7003508F8003408F90091
:10047000FA01F808031D462A7908F800F901083046
:10048000F702F808031D462AF7014E2A0310F81B4D
:100490004D2AF90DF80DF703462AF8138031A52DE2
:1004A00048080319C02AD2004C080319C02AD207F1
:1004B0000318612A7F30D202031CC02A0319C02A04
:1004C000652A8130D2070318C02A5208F700F801C4
:1004D000F901FA014908D600D6174A08D5004B0899
:1004E000D4001830D200D301541C8E2A4F08FA07CA
:1004F000031C802AF90A031D802AF80A0319D3175E
:100500004E08F907031C872AF80A0319D3174D0868
:10051000CA00CA174A08F8070318D317D30DF80CF6
:10052000F90CFA0CD60CD50CD40C0310D20B732A90
:100530000130F7070318C02AF81BA52AD60DFA0DBB
:10054000F90DF80DF7030319C02AD61FB62AFA0AC7
:10055000031DB62AF90A031DB62AF80A031DB62A96
:10056000F80CF90CFA0CF70A0319C02A4908D30051
:100570004D08D306D31FBE2AF817C42AF813C42A7D
:10058000F701F801F901FA010800380803198A2B6C
:10059000C4003C0803198A2BC402031CD42A7F30F0
:1005A000C40703188A2BDA2A8130C402031C8A2B61
:1005B00003198A2B4408F700F801F901FA01C30175
:1005C0003908C200C2173A08C1003B08C000193000
:1005D000C4003F08C0020318FD2A0130C1020318FD
:1005E000FD2AC2020318FD2AC3020318FD2AC30A0A
:1005F000C20AC10A3F08C0072F2B3E08C1020318D8
:10060000182B0130C2020318182BC3020318182B31
:10061000C30AC20A3E08C1073F08C007031C2F2BAC
:10062000C10A031D2F2BC20A031D2F2BC30A2F2B18
:100630003D088038C20203182E2B0130C302031874
:100640002E2BC30A3D088038C2073E08C107031C91
:100650000C2BC20A031D0C2BC30A0C2B7A14C40BDF
:10066000322B3D2B0310C00DC10DC20DC30D031065
:10067000FA0DF90DF80DC50DE92A451C452B03109F
:10068000F80CF90CFA0CC50C482BF70303198A2B4C
:10069000C51B712B0310C00DC10DC20DC30D3F084A
:1006A000C00203185D2B0130C10203185D2BC2028A
:1006B00003185D2BC302031C802B3E08C1020318E4
:1006C000682B0130C2020318682BC302031C802B65
:1006D0003D088038C2020318712B0130C302031C8D
:1006E000802BFA0A031D802BF90A031D802BF80AC0
:1006F000031D802BF70A03198A2BF80CF90CFA0C4E
:100700003908C4003D08C406C41F882BF8178E2B77
:10071000F8138E2BF701F801F901FA018031CC2D85
:100720000B088B1323009517151400000000891B7C
:100730008B170318C12B13087F392000B700230043
:1007400011082000B800230012082000B900370863
:10075000C8009C213808230091002000390823009C
:1007600092000B088B139517151400000000891BCD
:100770008B172000B40BBD2BBF2B2300C12BDF2B0D
:100780002300130D140D7F392000B700230011083A
:100790002000B800230012082000B9003708C80064
:1007A0009C21380823009100200039082300920082
:1007B000910A0319920A03102000B40B902B803188
:1007C000E52D0508BE000408BD00350EF038B9005F
:1007D000B907E23EBA00323EBC0035080F39BA070D
:1007E000BA07BC07E93EBB00BB07BB07340E0F3995
:1007F000BB07BC07BB0DBC0DBC09BC0D34080F39D1
:10080000BC07B90D0730B8000A30BC07BB03031C96
:10081000052CBB07BA03031C092CBA07B903031C38
:100820000D2CB907B803031C112C2030850018309B
:10083000840007303D053D1384070030853D0408E2
:100840001C3C031D272C0508203C03193D170008FC
:10085000F700031D332C3D1B332C3D1A422CBD19D0
:10086000332C2030362CBD153D123030F7070508EB
:10087000B5000408B4007708C8009C21350885003D
:100880003408840001313D1F1F2C8031EC2D83186A
:100890004D2C2030850032308400F701F801F90139
:1008A000FA01D201D301D401D5014F084E044D0401
:1008B0004C0403198B2C2030D6000310C80DC90D31
:1008C000CA0DCB0DD20DD30DD40DD50D4F08550249
:1008D000031D742C4E085402031D742C4D08530242
:1008E000031D742C4C085202031C852C4C08D202A8
:1008F0004D08031C4D0FD3024E08031C4E0FD402AB
:100900004F08031C4F0FD5020314F70DF80DF90D16
:10091000FA0DD60B5D2C520880005308813F540815
:10092000823F5508833F08000408C0003808C20011
:100930000319B32C3708CB003608CA003508C900A4
:100940003408C800CF01CE012030CD008230CC0069
:1009500050227A08B7007908B6007808B500770801
:10096000B400C20B9A2C3708CB003608CA003508F1
:10097000C9003408C8004808B63CC800FA01490854
:10098000CC00C9170310C90CCA0CCB0CFA0CF90C1B
:10099000F80CF70CC80BC22CCC1FD92CF709F8099E
:1009A000F909FA09F70A0319F80A0319F90A0319E8
:1009B000FA0A7A08B7007908B6007808B50077080F
:1009C000B400B71FF02CC003C016B409B509B609AE
:1009D000B709B40A0319B50A0319B60A0319B70A05
:1009E0003B30C7009A30C600CA30C500C4010A3087
:1009F000C20038080319C00A83142030850014305F
:100A000084003708CB003608CA003508C90034080E
:100A1000C8004708CF004608CE004508CD0044086E
:100A2000CC0047247808F708031D292D380A420214
:100A30000319292D400803192B2D0F3942020319E0
:100A4000232D03185B2DC01B5B2D401B2B2D20304D
:100A5000572D2030C005C01E392DC0123808031D87
:100A6000C0037708C0002D30C8009C214008F70063
:100A7000C00138084202031D472D7708C0002E3000
:100A8000C8009C214008F7002030C00500303030FD
:100A9000C01E572DC0123808031DC0037708C000C0
:100AA0002D30C8009C214008F700C0013030F70706
:100AB0007708C8009C2183104708CB004608CA006D
:100AC0004508C9004408C800CF01CE01CD010A3055
:100AD000CC0047247A08C7007908C6007808C5000A
:100AE0007708C400C20BFC2C08006A302100990072
:100AF00020002814AA01A90123008C018D012200E5
:100B0000920191019401930120003B294830230078
:100B10009100003092002000C821122A292A281CA6
:100B2000112E21009D141130F7009D1C992DF70BFB
:100B3000952D1B08F8001C082000AC007808AB00BD
:100B40002C08B5002B08B400322A7A08CB007908AB
:100B5000CA007808C9007708C800CF01CE0120304C
:100B6000CD008130CC0050227A08B7007908B60059
:100B70007808B5007708B4007A08BB007908BA0095
:100B80007808B9007708B800BF01C030BE007F30D8
:100B9000BD008830BC00C52A7A08B0007908AF00D3
:100BA0007808AE007708AD000330230091000030D4
:100BB00092002000C82150302300910000309200A4
:100BC000031005302000B400902B013084002C0865
:100BD000B5002B08B400E12B0130C9000230CA0077
:100BE0008A215630C8009C213D30C8009C2120300D
:100BF000C8009C21893084003008B7002F08B60057
:100C00002E08B5002D08B4000230B800942420301E
:100C1000C8009C215630C8009C21C830C9005C2007
:100C20003C2E553023009100003092002000C82156
:100C30000130C9000230CA008A215630C8009C2108
:100C40003D30C8009C212030C8009C2189308400A0
:100C50003008B7002F08B6002E08B5002D08B400E4
:100C60000230B80094242030C8009C215630C800BF
:0C0C70009C21C830C9005C208F2D63005F
:020000040001F9
:04000E00843FFF1E0E
:00000001FF
;PIC16F1827
;CRC=9D32  CREATED="16-Sep-25 13:18"
