:06000000803174280000AD
:0800080083018031200077081C
:10001000A0007808A1007908A2007A08A3008B1E2E
:1000200013280B1920288B1D17280B1822282008AD
:10003000F7002108F8002208F9002308FA00090057
:100040008031242880313E289501A50A261C3928B4
:100050002508063C031C322821000C1022000C1439
:100060003A28200021000C1022000C102000A501CD
:10007000261022000B118031200017282614A5011C
:100080009501FF302700160696050B1080312000E1
:100090001728003021008C008C0122008C01F030E8
:1000A00021008D008D0122008D01803120008528E6
:1000B00021001508C03907389500200095018B16DE
:1000C000C0308B04803186280B16210015178B1544
:1000D000FF302700910492048B1594049504C030DE
:1000E0008B048031200087286A302100990020008D
:1000F000A401A501261023008C018D01220092018C
:1001000091019401930120004928582864288728E8
:0201100063008A
:020000040001F9
:04000E00843FFF1E0E
:00000001FF
;PIC16F1827
;CRC=E64A  CREATED="26-ago.-25 18:20"
