:0600000080314B280000D6
:0800080083018031200077081C
:10001000A0007808A1007908A2007A08A3008B1E2E
:1000200013280B191C282008F7002108F8002208C3
:10003000F9002308FA00090080311E28A40A2408C8
:10004000073C03182A2821000C10013022008C06DE
:100050002000A4010B1180311328183021008C00DE
:1000600001308D008C01213022008C0021008D0197
:10007000013022008D00803120005A2895010B119B
:1000800021001508C039073895008B16C0308B0445
:10009000803120005B286A30210099002000A401F3
:1000A00023008C018D0122009201910194019301A2
:0A00B00020002D283E285B28630085
:020000040001F9
:04000E00843FFF1E0E
:00000001FF
;PIC16F1827
;CRC=18B0  CREATED="18-ago-25 20:42"
