:100000008031032800006A3021009900643020000C
:10001000A000A100A20023008C018D01220092010A
:10002000910194019301003021008D0022001D10E8
:100030009D101D1121008D1122008D110C30250005
:100040009300940195011E109E100130960000301F
:10005000F800063820009C00FF309B0022009D1114
:100060001D1221000D1322000D130C3025009A00E3
:100070009B019C011E119E1101309D0021008C11DD
:1000800022008C110C302600930025001E129E12B7
:1000900091019801FF30260091001308CF393038C4
:0600A000930051286300EB
:020000040001F9
:04000E00C43FFF1ECE
:00000001FF
;PIC16F1827
;CRC=F21F  CREATED="10-nov.-25 17:32"
