:06000000803159280000C8
:0800080083018031200077081C
:10001000A0007808A1007908A2007A08A3008B1E2E
:1000200013280B191C282008F7002108F8002208C3
:10003000F9002308FA00090080311E289501A40A5E
:1000400024084B3C031C2628A5013B2824084C3CD3
:100050000318312824086A3C031C31280130A5000C
:100060003B2824086B3C03183B282408B73C031C9E
:100070003B280230A5002408B83C03184128A501FC
:10008000A4010B1180311328203021008C008C0139
:1000900022008C0080312000692821001508C03919
:1000A00007389500200095018B16C0308B048031F5
:1000B0006A286A30210099002000A401A5012300CC
:1000C0008C018D0122009201910194019301200085
:1000D00044284D2821000C11043022008C062000F9
:1000E000250803197A28013A03198428033A0319C9
:1000F0008E28972821000C1122000C1521000C12CB
:1001000022000C122000972821008C1122008C154F
:1001100021000C1122000C112000972821000C1244
:1001200022000C1621008C1122008C112000702856
:0201300063006A
:020000040001F9
:04000E00843FFF1E0E
:00000001FF
;PIC16F1827
;CRC=F2AD  CREATED="19-Aug-25 14:40"
