:100000008031C62900000C28D2224E22C9224E225D
:100010004F000C008C20D020C7204E224F000C0037
:10002000203085000730840000080319252801309E
:10003000F800F701F70B1A28F80B19284A30F700D7
:10004000F70B20282328800B172808002D182C28B0
:1000500022000D122E28200022000D1621000D1264
:100060002000AD18372822008D12392820002200E8
:100070008D1621008D1220002D19422822000D130B
:100080004428200022000D1721000D132000AD1977
:100090004D2822008D134F28200022008D172100AB
:1000A0008D13000022000D1421000D10572822008E
:1000B0000D1021000D1020000800AE0121000D16CA
:1000C000003020000D1A0130AE0421008D160030E2
:1000D00020008D1A0130F7000310F70D7708AE04E9
:1000E00021000D17003020000D1B0130F700F70D27
:1000F000F70DFC30F7057708AE0421008D170030AE
:1001000020008D1B0130F700F70DF70DF70DF830CB
:10011000F7057708AE042E08F800080021000D103E
:100120008D100D1122008D1021008D100D168D16D1
:100130000D178D1722000D1521000D110000220052
:100140000D1421000D10000020005D207808AD0086
:1001500022000D1021000D10000022000D142100BE
:100160000D10000020005D207808AC0022000D106A
:1001700021000D100D128D120D138D1320002D0E68
:10018000F700F030F70577082C04F8007808AC0089
:10019000AC1FCC2821009628AA08031DD3282200D2
:1001A0008D10D528200022008D1421008D10000014
:1001B00022000D1121000D11000022000D10210060
:1001C0000D1020002B0EAC000F30AC052C08AD003C
:1001D00026202B080F39AC00AD0026200800C030C7
:1001E00021008C0000308D0028302000A3000C304E
:1001F000A4000130A5000630A60022000D10210049
:100200000D1022008D1021008D1022000D112100F3
:100210000D110D128D120D138D130D108D100D116A
:100220000F302000A70010200130A2002208033C5C
:10023000031C22290330AD0026200530A700102022
:10024000A20A16290230AD0026200530A700102092
:10025000A2012208033C031C3C290330220784002E
:10026000203085000318850A0008A700AA01270886
:10027000AB008E20A20A29298031D629270B4129DB
:1002800044294030A8004529A80101302602A807CA
:1002900028088038A900AA012908AB008E20080090
:1002A0002508073A03195E290B3A03196329063A10
:1002B00003196B29023A0319712976290130A60026
:1002C000A7003E217B29AA010130AB008E2002301D
:1002D000A70010207B290130A6000230A7003E2194
:1002E0007B29AA011030AB008E207B290130AA00A7
:1002F0002508AB008E2008000B088B1323009517F0
:10030000151400000000891B8B1713087F3903198F
:10031000C4292000A200230011082000A30023000C
:1003200012082000A4002208A50050212308230061
:10033000910020002408230092000B088B139517CE
:10034000151400000000891B8B17130D140D7F3945
:100350000319C4292000A200230011082000A300D3
:10036000230012082000A4002208A5005021230821
:10037000230091002000240823009200910A031911
:10038000920A20007C292300200008006A30210006
:1003900099002000A101A00123008C018D01220001
:1003A00092019101940193012000EF2821000C1487
:1003B00020000C1CF1290330230091000030920032
:1003C00020007C210430A200FA30A7001020A20BEC
:1003D000E4290930230091000030920020007C21A4
:1003E0000B2A21008C1420008C1C0B2A0A302300BD
:1003F00091000030920020007C210430A200FA30ED
:10040000A7001020A20BFF290F302300910000301D
:0A041000920020007C21D629630031
:020000040001F9
:04000E00843FFF1E0E
:00000001FF
;PIC16F1827
;CRC=CF04  CREATED="04-sep.-25 17:44"
