:06000000803148280000D9
:0800080083018031200077081C
:10001000A0007808A1007908A2007A08A3008B1E2E
:1000200013280B191C282008F7002108F8002208C3
:10003000F9002308FA00090080311E2821000C1065
:10004000013022008C066430200095000B118031B5
:100050001328183021008C0001308D008C012130D4
:1000600022008C0021008D01013022008D008031A2
:1000700020005528643095000B1121001508C03967
:10008000023895008B16C0308B0480312000562832
:100090006A302100990023008C018D012200920119
:1000A000910194019301200029283A2856286300E1
:020000040001F9
:04000E00843FFF1E0E
:00000001FF
;PIC16F1827
;CRC=21FC  CREATED="19-ago-25 09:28"
