:10000000803121280000FF3021008C00EF308D006E
:10001000803120002E282030850002308400000826
:10002000031920280130F800F701F70B1528F80B09
:1000300014284A30F700F70B1B281E28800B1228C3
:1000400008006A302100990023008C018D012200F4
:1000500092019101940193012000032821000D12C7
:1000600022000D1602302000A100FA30A2000B2061
:10007000A10B352821000D1222000D1202302000A4
:10008000A100FA30A2000B20A10B41282E2863000A
:020000040001F9
:04000E00843FFF1E0E
:00000001FF
;PIC16F1827
;CRC=FE9C  CREATED="18-ago.-25 20:27"
