:100000008031F02800000B00013402340334043442
:1000100005340634073408340934FE340034FD3422
:1000200021000C1022000C1021008C1022008C10DA
:1000300020000800F13021008D008D1122008D1567
:1000400021008D1222008D1621000D1322000D17A4
:1000500021008D1322008D17803120001929F7010E
:10006000F8012A0803102B18F707F70CF80CAB1847
:10007000F707F70CF80C2B19F707F70CF80CAB196E
:10008000F707F70CF80C2B1AF707F70CF80CAB1A5C
:10009000F707F70CF80C2B1BF707F70CF80CAB1B4A
:1000A000F707F70CF80C0800A8012808033C031C0C
:1000B000BD2821008D1122008D1521008D122200F6
:1000C0008D1621000D1322000D1721008D13220023
:1000D0008D1720002808FC3E03188728043EC128FD
:1000E00021008D1122008D112000872821008D1202
:1000F00022008D122000872821000D1322000D13ED
:100100002000872821008D1322008D1320001A3033
:10011000F700F70B8928000021000D1420000D18AE
:100120009B282808AA000330AB002F207808032062
:10013000F800F800BF2821008D1420008D18AB288E
:100140002808AA000330AB002F20013078070320D5
:10015000F800F800BF2821000D1520000D19BB285C
:100160002808AA000330AB002F20023078070320B4
:10017000F800F800BF28A80A5528FF30F8008031A1
:100180001A290A108A100A118207702876287C28FA
:100190008228A808031DD22821000C1022000C146C
:1001A000D8282000280BD82821008C1022008C147D
:1001B0002000080020308500093084000008031961
:1001C000EF280530F800F701F70BE428F80BE328D7
:1001D0002E30F700F70BEA28ED28800BE128080005
:1001E0007A30210099002000A001A10123008C0198
:1001F0008D012200920191019401930102302000AF
:10020000A2000530A3000330A400A501FF30A60022
:10021000A70021001508C039073895002000950176
:100220008B16C0308B04003021008C002000102081
:100230001A2854287808A600A00803192B29270893
:100240002602031D2B29A501A00121008C100230DC
:1002500022008C0620002608FF3C03196529270888
:10026000260203196529A101A0012608093C031CE7
:100270006329023025078400203085000318850A91
:1002800000082602031D5629A50A2508033C031D64
:1002900055291020A801C9200230A800FA30A90071
:1002A000DA20A80B4E291020A50163291020013067
:1002B000A800C9200230A800FA30A900DA20A80B53
:1002C0005C291020A5012608A7002608FF3C031D75
:1002D0006B29FF30A7003230A900DA20192963000A
:020000040001F9
:04000E00A439FF1EF4
:00000001FF
;PIC16F1827
;CRC=4908  CREATED="12-ago-25 13:56"
